:020000041102E7
:1000000003B40148019001BDADAE000003B4014846
:10001000019001BD456B010003B40148019001BD91
:100020000189000003B40148019001BDC53F0000F3
:1000300003B40148019001BDE94C010003B401483B
:10004000019001BDC95C010003B40148019001BDEC
:10005000CD4C010003B40148019001BD090E000020
:1000600003B40148019001BDF54E010003B40148FD
:10007000019001BD434D010003B40148019001BD51
:10008000154D010003B40148019001BD1D4B010055
:1000900003B40148019001BD6189000003B4014827
:1000A000019001BD4551010003B40148019001BD1B
:1000B0001147010003B40148019001BD252600004D
:1000C00003B40148019001BD8B52010003B4014803
:1000D000019001BDB352010003B40148019001BD7C
:1000E0000D52010003B40148019001BDC94A01004D
:1000F00003B40148019001BD3D4B010003B4014828
:10010000019001BD014C010003B40148019001BD03
:10011000F94C010003B40148019001BD35220000F3
:1001200003B40148019001BD691F000003B40148F8
:10013000019001BD4D1A000003B40148019001BDBA
:100140005D17000003B40148019001BD5952010040
:1001500003B40148019001BD5125000003B40148DA
:10016000019001BD594F010003B40148019001BD48
:100170008D12000003B40148019001BD4D1F000025
:1001800003B40148019001BD5522000003B40148A9
:10019000019001BDDD52010003B40148019001BD91
:1001A0001D4D010003B40148019001BD810E000006
:1001B00003B40148019001BD017F000003B4014870
:1001C000019001BDE117000003B40148019001BD99
:1001D0007918000003B40148019001BDD94901001C
:1001E00003B40148019001BDE928000003B40148AF
:1001F000019001BD5549010003B40148019001BDC2
:10020000C926000003B40148019001BDE1220000AD
:1002100003B40148019001BD3555000003B4014805
:10022000019001BD1DBC000003B40148019001BD57
:100230006DBC000003B40148019001BDC51D000064
:1002400003B40148019001BDD54FFF1F03B401481D
:10025000019001BD8552010003B40148019001BD28
:10026000ED4A010003B40148019001BDA54F010012
:1002700003B40148019001BDC90E000003B4014858
:10028000019001BDFD4AFF1F03B40148019001BD6B
:10029000B30E000003B40148019001BD4934FF1FB3
:1002A00003B40148019001BD514AFF1F03B4014846
:1002B000019001BD594BFF1F03B40148019001BDDE
:1002C000C9A9000003B40148019001BDC960FF1F26
:1002D00003B40148019001BD6560FF1F03B40148EC
:1002E000019001BD294FFF1F03B40148019001BDDA
:1002F0007D4FFF1F03B40148019001BDB30E000004
:1003000003B40148019001BD350E000003B401485B
:10031000019001BDE534FF1F03B40148019001BD08
:100320003519000003B40148019001BDBD1800005B
:1003300003B40148019001BD311A000003B4014823
:10034000019001BDA946010003B40148019001BD1F
:100350009928000003B40148019001BD9128FF1FB6
:1003600003B40148019001BDC521000003B4014858
:10037000019001BD291C000003B40148019001BD9A
:100380001922000003B40148019001BD851F00003F
:1003900003B40148019001BD5147010003B4014875
:1003A000019001BD4150FF1F03B40148019001BD00
:1003B000C14EFF1F03B40148019001BDD94EFF1F7C
:1003C00003B40148019001BD954EFF1F03B40148DD
:1003D000019001BDEDA5000003B40148019001BDED
:1003E000F94EFF1F03B40148019001BD2551FF1FC5
:1003F00003B40148019001BD1D51FF1F03B4014822
:10040000019001BDB54C010003B40148019001BD4C
:100410004550000003B40148019001BD75A90000DA
:1004200003B40148019001BD9DA9000003B4014837
:10043000019001BD8B26FF1F03B40148019001BD4F
:100440006526FF1F03B40148019001BDB14E0000B5
:1004500003B40148019001BD3D18000003B40148F8
:10046000019001BD2146010003B40148019001BD86
:100470000D27FF1F03B40148019001BDB13E0000EC
:1004800003B40148019001BD2124000003B40148D8
:10049000019001BD055E000003B40148019001BD5B
:1004A000B11D000003B40148019001BDF525000015
:1004B00003B40148019001BDE548000003B40148C0
:1004C000019001BD2951010003B40148019001BD13
:1004D000D91B000003B40148019001BDAD28FF1FE6
:1004E00003B40148019001BDD528FF1F03B40148A2
:1004F000019001BDD1A50000F8B5C849C64A002049
:1005000005464A608300401CD550FF28FADD486844
:10051000C34A014680318A606E22C262C14A1278A3
:10052000002A01D07F22C2620A22BF4B02651A78DC
:100530008263BE4AC2611A781024022A06D01A7851
:10054000032A08D01A78042A05D005E0B84AC26107
:100550000422026200E00462B64A4261192292015A
:1005600082613722CA6036272D26C7630822466477
:1005700002644F6032270F603B27CF634527CF646B
:100580000D4639274035C4C532270F6502270F664F
:1005900042270835C4C51E274F66CE668A660526E3
:1005A0004E6742260E675A260E614A613C228A61D6
:1005B000AF22D2000260A04A02631A78022A06D053
:1005C0001A78032A05D01A78042A04D005E01522E7
:1005D00002E00E2200E00C224260FF222D328260F7
:1005E000C260FF22F5320261944A82647D22D20009
:1005F000934ECA67C6644262924A82627322C2659F
:10060000062242658265C21D0826F932022716605D
:1006100047664B27FF0087660927C7668A4F07672B
:10062000466700258567BD10884F854EC5673E60CB
:100630001E78022E06D01E78032E07D01B78042BBE
:1006400008D00AE01A23CB61212301E01323CC61F7
:100650000B6202E00E230C62CB61784B8B627D2330
:10066000DB008B6764234B620523CB6202230B63A1
:10067000C8234B6300238B63382151607449116494
:10068000744991614B21C900D161734911627D2187
:1006900009015162D3661E21136791666A4991650B
:1006A000156655645567D1656149FF30963191678C
:1006B0006A49D1676A4A8130026082604160FF21E5
:1006C000F531C160016168486649534A81606749F4
:1006D000803A11616449664A80318A62654ACA6219
:1006E000654A8261654AC262654A02636548C861BB
:1006F0005D496548403188616549644888605A4869
:1007000064498038416064494163FFF779FC012006
:10071000FFF77CFCF8BDF3B50746604881B0C169BE
:100720005F4A1140FF310931C161002613E0002505
:100730002C461120FFF770FC5848406A8007800F54
:10074000610088402843641CE4B20546102CF0D3B5
:1007500001C7761CF6B202988642E8D3FEBD10B5FA
:100760002E4C607800280AD104214E48FFF7D3FFB1
:100770004C4804211030FFF7CEFF0120607010BDFF
:10078000F0B500248BB00D460646102902D9012091
:100790000BB0F0BDFFF7E3FF424900200A5C401CAC
:1007A0001419C0B21028F9D3002C03D0102D03D98E
:1007B0000B20EDE70E20EBE73B483A4C00230068A6
:1007C00002A91034E25CC75C7A40CA545B1CDBB2FD
:1007D000102BF7D306AA3348FFF724FC102D00D9BD
:1007E00010252A4606A93046FFF722FCFFF726FC13
:1007F000216840182060FFF721FC616840186060A4
:10080000FFF71CFCA1684018A060FFF717FCE16827
:100810004018E0600020BBE70004FF1F507BFF1F73
:10082000F8E9FF1FFA75FF1F4A0AFF1F220B00009D
:100830004605000080C3C9019A02000050C30000B1
:10084000F81100006A180000204E0000F009FF1F98
:100850000040001168100000C409000040420F0071
:10086000102700007D5EFF1F0001FF1FC52DFF1F29
:10087000BD6CFF1F9D6FFF1F2D2AFF1FC12BFF1F88
:10088000492AFF1F0574FF1FE526FF1F4931FF1F7F
:100890000002FF1F9D5BFF1FD15CFF1F40F0004067
:1008A00000FEFEFF18E5FF1F707BFF1F0A78027035
:1008B0008A7842704A88120A82700979C1700420CD
:1008C00070470A7802700988090A4170022070474F
:1008D0000A7802700988090A417002207047097875
:1008E00001700120704770B50C46097801702188AD
:1008F000C51C090A4170A17881706088611D000AD9
:1009000028706D1C22792846FFF792FB207921463A
:10091000401922890A31FFF78BFB20792189401881
:10092000001D80B270BD10B500220EE093005B1870
:100930009C7804705C88521C240A44701C79847072
:100940009B88D2B21B0AC370001D0B789342EDD86E
:100950001806800D10BD0A7802700A88120A4270CB
:100960008A7882704988090AC17004207047F8B5F6
:100970000D4606464978012031700024761C16E0A9
:100980006978012917D01221614349198A78327098
:100990004A88871C120A7270B61C10223046091D44
:1009A000FFF746FB1037B8B21036641CE4B2297862
:1009B000A142E5D8F8BDA10049198A7832704A8869
:1009C000871C120A7270B61C02223046091DFFF7FE
:1009D0002FFBBF1CB8B2B61CE7E710B50C46097870
:1009E00001702188090A41706288211D801CFFF76F
:1009F0001FFB6088801C80B210BD10B50C460978C2
:100A000001702188090A4170A17881706188090A02
:100A1000C170A288A11D001DFFF70AFBA088001D60
:100A200080B210BD10B50C46097801702188090A02
:100A30004170A17881706188090AC170A288A11DE6
:100A4000001DFFF7F5FAA088001D80B210BD0A78DE
:100A500002700A88120A42708A7882704988090AEC
:100A6000C1700420704710B50C460A88891CFFF736
:100A7000DFFA208810BD10B50B788A7802705343D6
:100A8000DCB22246401C091DFFF7D2FA601C10BDE3
:100A900010B50C46097801702188090A4170A178C7
:100AA00081706188090AC1702279611D001DFFF7FC
:100AB000BFFA2079001D10BD10B50B788A7802703E
:100AC0005343DCB22246401C091DFFF7B1FA601CFB
:100AD00010BD10B50C460A88891CFFF7A9FA2088BA
:100AE00010BD10B50C460A88891CFFF7A1FA2088B2
:100AF00010BD10B50C46097801702188090A4170B3
:100B00006288211D801CFFF793FA6088801C80B2E8
:100B100010BD7FB515460446022901D0102903D126
:100B2000022B04D0102B02D0002004B070BD9942DB
:100B300002D10A46294607E01029694607D000F08D
:100B40000DF8102269462846FFF77EFAEDE71046B9
:100B500000F004F8102269462046F5E770B50C460F
:100B600005000CD0002C0AD0102206492046FFF7C1
:100B70005FFA2878207368786073012070BD0020C8
:100B800070BD00009CD9021110B50B46012202492C
:100B900003F0F8F910BD0000AD08021110B50A8885
:100BA000173AE02A05D80B460222034903F0EAF976
:100BB00010BD022010BD0000C308021170B506462A
:100BC00008880C46172812D30B46032209493046E1
:100BD00003F0D8F9050008D1074920880988884220
:100BE00000D20146304600F08DFA284670BD022042
:100BF00070BD0000D1080211587AFF1F10B50B46D6
:100C00001822024903F0BEF910BD0000DF080211EE
:100C100010B500231922194603F0B4F910BD0000E5
:100C200010B50A79022A01D0022010BD0B46062217
:100C3000014903F0A7F910BDE708021110B50A78C1
:100C4000002A05D00B460722024903F09BF910BD8C
:100C5000022010BD2709021110B50B4604220249DB
:100C600003F090F910BD00005709021110B54A7841
:100C7000012A01D0022A08D10A78002A05D00B46A1
:100C80000522034903F07EF910BD022010BD0000CB
:100C90006F09021101494000085A7047567AFF1F38
:100CA00010B50B461D22024903F06CF910BD00007F
:100CB000DB09021110B50B461B22024903F062F951
:100CC00010BD0000DB0902110149172008807047A0
:100CD000567AFF1F042901D0042070470178117053
:100CE000837841781B02C9185180C07810710020A8
:100CF00070470098022B01D0042070471178527879
:100D000012028918018000207047022901D00420B6
:100D10007047017840780002081810800020704762
:100D20000098012B01D00420704711780170002039
:100D30007047002901D0042070470020704770B52B
:100D4000049C1E461546062B1BD369782878090299
:100D500040182080E978A8780902401860800222B3
:100D60002271291D601DFFF763F9B61FB2B22281FF
:100D7000F02A06D82046A91D0A30FFF759F90020AD
:100D800070BD042070BD0098042B01D00420704772
:100D9000537811781B02C91801809178D278120219
:100DA000891841800020704710B502981146022B27
:100DB0000FD34C780A782402121902809B1E9AB233
:100DC0004280F42A05D8001D891CFFF731F9002064
:100DD00010BD042010BDF8B584890D460646002CD0
:100DE00026D0B2681778380620D50C2C20D90C3CB8
:100DF000A4B21019009001217088234602F094FDDE
:100E0000002811D0022028707806C00F6870B8063C
:100E1000800EA870641E2004000CA88001D0B06869
:100E2000401CA8600020F8BD0120ECE70020EAE7A4
:100E30000120F8BD10B502981146042B14D34C784C
:100E40000A78240212190280CC788A7824021219B6
:100E500042801B1F9AB28280F22A05D8801D091D8C
:100E6000FFF7E6F8002010BD042010BD0098042B09
:100E700001D004207047537811781B02C9180180F3
:100E80009178D2781202891841800020704770B59D
:100E90000546144603290CD3491ECEB22978618039
:100EA000F52E06D8002904D03046FFF7D3F80029E4
:100EB00001D0042070BD20703246691C201DFFF750
:100EC000B7F8002070BD10B502981146062B03D06C
:100ED000142B03D0042010BD022200E01022027166
:100EE0004B780A781B02D2180280CB788A781B02D2
:100EF000D21842800279401D091DFFF799F80020A1
:100F000010BD70B50546144603290CD3491ECEB258
:100F100029786180F52E06D8002904D03046FFF7E5
:100F200099F8002901D0042070BD20703246691C58
:100F3000201DFFF77DF8002070BD000030B5039C38
:100F4000D80718D1D805010E022914D30B48808880
:100F5000814210D8F6200155002008E0557813781A
:100F60002D025B194500401C6353C0B2921C88429D
:100F7000F4D3002030BD042030BD0000507AFF1FA4
:100F80000098022B01D00420704711785278120289
:100F9000891801800020704770B5144602460498F5
:100FA000022B18D3667825783602AD1905800546E0
:100FB000E0352A766976002A0BD0E8219B1E9AB28A
:100FC00042808A4207D8A11C001DFFF731F800209B
:100FD00070BDF421F2E7042070BD002901D0042087
:100FE000704700207047000010B50B4616220249DA
:100FF00002F0C8FF10BD0000FB09021110B50B463E
:101000001722024902F0BEFF10BD0000250A02119E
:1010100010B50B460C22024902F0B4FF10BD0000CF
:101020004F0A021110B50B460D22024902F0AAFF29
:1010300010BD0000670A021110B50A79102A03D00A
:10104000022A01D0022010BD0B461022014902F0F5
:1010500099FF10BD910A021110B50A78002A05D037
:101060000B461122024902F08DFF10BD022010BD77
:10107000770A021110B50A79102A03D0022A01D08A
:10108000022010BD0B460822014902F07BFF10BD73
:10109000910A021110B50A78002A05D00B460922E0
:1010A000024902F06FFF10BD022010BDB90A021103
:1010B00010B50B460F22024902F064FF10BD00007C
:1010C000D30A021110B50B460B22024902F05AFF57
:1010D00010BD0000E30A0211F72800D9F720084AE2
:1010E00001461080401EC3179B0F18188003000C88
:1010F0005080491EC80F4018C003000C90807047F4
:10110000507AFF1F044A1288914203D8024A4000D5
:10111000921D115270470000507AFF1F70B50B46A8
:10112000E0331C7E1222012C09D10A4D4200AA5A3A
:101130004C880F3A944201DD022070BD92225B7E02
:10114000012B01D140231A430B46034902F01AFF39
:1011500070BD0000567AFF1FF30A021110B500237C
:101160001322194602F00EFF10BD0000014908705D
:1011700070470000A275FF1F10B50C46090408D582
:10118000FEF76EFF002801D0FEF770FF0120C003BC
:1011900061E0E00703D003F079FB01205BE0A007EA
:1011A00003D503F0AFFB022055E0600701D5042012
:1011B00051E0200701D508204DE0E0060BD5284876
:1011C0000078002805D027480078002801D100F0D9
:1011D00003FF10203FE0A00601D520203BE0600681
:1011E00006D521480068002800D08047402032E022
:1011F000200606D51D480068002800D080478020C2
:1012000029E0E00507D51A480068002800D080478B
:10121000FF2001301FE0A00508D51648006800280F
:1012200000D0804701212046490209E0600509D528
:1012300011480068002800D080470121204689021B
:10124000484010BD200508D50C480068002800D093
:1012500080470120C002604010BD002010BD00008A
:10126000F675FF1FED75FF1F8476FF1F8876FF1F41
:101270008C76FF1F9076FF1F9476FF1F9876FF1FD6
:1012800010B50249087004F06DF810BD1C77FF1FFF
:10129000FFB58DB0054600200A900B901E460AAAA5
:1012A000284600F0F9F904460A2855D204F039F826
:1012B0000546082E19D00020009033462A462146C4
:1012C0000F9803F015FF1422002101A8FEF7D4FEA9
:1012D00020460621484307462430C0B201AA102107
:1012E00009F002F9002802D014E00120E4E71022FE
:1012F000FF2101A8FEF7C6FE00280BD12537F8B262
:1013000005AA042109F0F0F8E907C90F01AA0F980E
:1013100001F040FA7034E0B206AA102109F0E4F8B6
:10132000002811D106A804F00EF8002406AFA00092
:10133000C0190188002903D082780F9801F0ECFCD5
:10134000641CE4B2042CF2D3A80707D51648017830
:101350000F9801F0CFFC01E0082E02D0042E17D028
:101360001FE011480F99401C405C022819D100224F
:1013700029460F9803F032FE0B48C069002810D0B0
:101380004368002B0DD0002211460F98984708E0C3
:1013900005480F99401C405C022802D1084604F021
:1013A00019F8002011B0F0BD1C77FF1F70B50C4676
:1013B000080428D515480078FEF752FE05001ED017
:1013C0000178B02908D0B1290ED0D02914D100F06D
:1013D0001FF8002810D112E001791E290CD168886D
:1013E000002100F0B5F907E00179002904D1028954
:1013F000C188688800F0A0FA2846FEF737FE012071
:10140000C003604070BD002070BD00001C77FF1F4E
:10141000F0B504468078954F801F85B07D1E00266C
:101420000300FEF735FE0AFE1111891B06CE115E80
:101430009A11E869002808D00668002E05D0637B61
:10144000227B6189E01CB0470EE16189A86901F047
:1014500087F80028F8D060890121D9E06078002859
:101460002DD1A079C0072AD0A088804980001F31E3
:101470000858002823D10E2200216846FEF7FCFD03
:101480006169002903D006226846103107E0A08870
:1014900008F06CFC0028D7D0811D06226846FEF7B4
:1014A000C7FD69468889A1794907C90F084369467C
:1014B00088812146684603F0D3FC002809D0E869FA
:1014C0000028C1D04368002BBED06278A0880121DB
:1014D00070E0A0882246694604F04EF8002005B06E
:1014E000F0BD6078062817D1A08808F03FFC060000
:1014F00012D0A87B012804D0022808D003280BD1E1
:1015000014E07179A088002203F068FD04E0A1884E
:101510003078052201F074F9E86900281CD043688E
:10152000002B19D06278A088022143E000221146E6
:101530004F4800F043F9EAE7E0780022211D00F06F
:10154000ABF80A2808D20621484325302246C0B20B
:101550000C32042108F0D4FF86E0687A0028A088C5
:1015600001D0A97A54E0395C002925D008F0FEFBAF
:101570000646A07AC0070ED0002E75D070790028DC
:1015800009D0A089800506D470796A46B11D00F0A3
:1015900083F8002812D022467179A088083203F01F
:1015A0001DFDE86900285FD04368002B5CD0002255
:1015B000A0881146984757E0052129E0A08803211B
:1015C00026E0A58801962846029608F0CFFB040085
:1015D0004AD0785D022847D0607901AAA11D00F0A9
:1015E0005BF806460A280AD203F09BFE0121024658
:1015F000009108233146284603F07AFD34E0785DF7
:10160000002803D0012806D02EE00AE00521284654
:1016100001F0E6F828E061790022284603F0DEFCBC
:1016200022E000F07DFF00281ED1287C012805D093
:10163000104D0024285D012809D00CE003F0C4FD02
:101640002E740A2200210B48FEF716FD07E0204603
:1016500003F0C6FD2E55641CE4B20A2CEAD35020D8
:1016600008F040FF03F07EFE012038E71D77FF1FE2
:101670000904000004B3FF1F10B5064CE061217897
:10168000FF2905D0262001F075F8207801F0E2FA54
:1016900010BD00001C77FF1FF0B50A2485B0164668
:1016A0000F46002807D0012805D00A25022810D0AF
:1016B000032847D11FE0084603F0F2FD04460A283C
:1016C00040D2002E3ED0062239463046FEF7B0FC0E
:1016D00038E01E4F002400910E206043C0190622FE
:1016E000801D0099FEF7B0FC002823D1641CE4B2F1
:1016F0000A2CF1D31CE00024204606214843233065
:10170000C0B26A46102108F0EFFE00280CD110226A
:10171000FF216846FEF7B6FC002805D13946684629
:1017200000F0DCFF002805D0641CE4B20A2CE3D3EF
:101730002C4607E00A2C05D2002E03D03146204665
:1017400003F0D4FD204605B0F0BD000078B2FF1FC5
:1017500070B50E4617491525884212D1002432462D
:101760000221204603F004FD002800D00025641C5F
:10177000E4B20A2CF3D3002E1AD00F4808F056FB1F
:1017800016E008F0F3FA040011D060790022A11DE0
:10179000FFF782FF0A2804D23246022103F0E8FC58
:1017A0000025002E04D0204603F00AFE00E0142598
:1017B000284670BDFFFF0000C1530211FEB515465B
:1017C00001229202821A00240127584E1300FEF7CC
:1017D0005FFC110A151A21282F373E434B767E8570
:1017E0008DA29956A200012970D1297802296DD8BD
:1017F0004E480122401CFEF73FFC94E0022965D1CF
:10180000288870828FE0012960D1287801285DD86E
:10181000B07088E001297CD12878042879D8F0704C
:1018200081E0012975D12878012872D830717AE0D9
:1018300010296ED1102229463D48FEF7F9FB72E0CF
:10184000012966D12878012863D870716BE00129DD
:101850005FD12878F07266E004295AD135492868AA
:10186000884256D8B0615EE0002952D100F058FE9F
:10187000002801D0377456E003F0A6FC19E00729D0
:1018800047D10622691C6846FEF708FC287800222A
:101890006946FFF701FF05460A280ED200F040FE18
:1018A000002803D022489C3047553CE0284603F0EE
:1018B00097FC502008F016FE21E0022433E00129B5
:1018C00027D12878012824D870722CE021E0012942
:1018D0001FD1287809281CD8B07224E0012918D11A
:1018E0002878C11F092914D830731CE0012910D1B0
:1018F000F07B2978F173002815D1012913D103F069
:1019000031FD10E0012904D12878032801D8B073F3
:1019100009E0182407E02728CFD20229CDD1298851
:1019200000F028FF04462046FEBD00001C77FF1F84
:1019300068B2FF1F3F420F00F8B50F461349152547
:10194000164688420DD1002432463946204603F01F
:1019500063FD002800D00025641CE4B20A2CF3D3F8
:1019600012E008F003FA00280DD04379811D00220F
:101970001846FFF791FE0A2806D23246394603F090
:101980004BFD002500E014252846F8BDFFFF0000B0
:1019900010B5044603F0D6FE002817D00079FEF7F4
:1019A00083FB0B48002106224A4312185288A242A8
:1019B00006D100220623D24359430818428003E08F
:1019C000491CC9B20429EED3002010BD122010BD5D
:1019D000F484FF1F3EB5084C65786C462570607036
:1019E000A170E2700622194601A8FEF721FB6846A5
:1019F00000F09CFC3EBD00009075FF1F70B50949CA
:101A0000094C48700021094AFF2506234B439B18C7
:101A1000491C5C80C9B21D710429F6D300F058FE40
:101A200070BD00009075FF1FFFFF0000F484FF1FD2
:101A300070B50C4608040ED50B484078FEF710FB35
:101A4000050004D003F03EFE2846FEF70FFB012000
:101A5000C003604070BD600403D50120800348408E
:101A600070BD002070BD00009075FF1F10B51346BB
:101A7000012200249202821A09D0012A0DD01148B5
:101A8000022A13D0042A16D00224204610BD1029A1
:101A900013D1102219460C4805E010290DD10A482F
:101AA000102219461030FEF7C3FAEEE7042904D1DC
:101AB00019688160E9E7012901D01824E5E7197860
:101AC0000170E2E79075FF1F0C85FF1F1CB5084CE5
:101AD000002800D06060064906480831019103469D
:101AE0000090103B22780821607800F0A7FB1CBD15
:101AF0009075FF1F1C85FF1F38B5054B5C786B4642
:101B00001C7058709970DA70684600F049FB38BD57
:101B10009075FF1F70B50C460146032000020A1A9B
:101B2000002534481300FEF7B3FA1D1012151C1FD0
:101B30002326282C303234383A3C3E404244464832
:101B40004A4E50525A5456585A00C07911E0102249
:101B5000294902E02849102210312046FEF768FA90
:101B600045E0C06A206042E0224906223C31F4E7A9
:101B7000007820703BE0808936E01E49427842318F
:101B8000EBE71D4982781F39E7E7007AF1E7407AF1
:101B9000EFE7184906223031DFE7807AE9E7C07ABB
:101BA000E7E7C08920E0808A1EE0C0781CE0C08A98
:101BB0001AE0008B18E0408B16E0808B14E00D4992
:101BC00006223631C9E7C08B0EE0008C0CE0408C59
:101BD0000AE08079CDE7008A06E0408A04E0272900
:101BE00004D2084600F020FC208000E002252846B0
:101BF00070BD0000AC78FF1FC9B7FF1F70B50E4C59
:101C000000256071A571691EE18100F061FD04206D
:101C1000E071102200210948FEF72EFA0748102231
:101C200000211030FEF728FAE56225726572072060
:101C3000A072E57270BD0000AC78FF1FC9B7FF1F2E
:101C4000FEB53B4D0C4608040CD56879FEF708FA42
:101C5000050004D004F05EFC2846FEF707FA0120D8
:101C6000C00360E0600403D5012080034840FEBD4E
:101C70002F48E1070126807900292AD029780029F8
:101C800020D0052821D0297A68460170697A4170F0
:101C9000274906223031801CFEF7CAF9A97A684626
:101CA0000172E97A41726946687900F0D9FB00282F
:101CB00008D00720A871696A002903D009680029A3
:101CC00000D0884720467040FEBD0320694608705A
:101CD000E4E7A1070DD5052809D1E889FEF7EAF95F
:101CE000AA8A002A03D002216879FEF7E9F90220C6
:101CF00019E0600704D5002004F064FC042012E021
:101D0000200712D52879012802D002280AD107E03D
:101D10000096AB8B6A8B298BE88A00F00BF801E008
:101D200000F05AF908206040FEBD0020FEBD000012
:101D3000AC78FF1FF8B5134C069EA579052D01D090
:101D40001420F8BD104F851FBD4219D2062917D3A4
:101D5000BD1DA94214D2FF27F537BA4210D20A2B73
:101D60000ED3AB420CD2E08221836283A383304640
:101D700004F028FC04216079FEF7A8F90020F8BDE2
:101D80001820F8BDAC78FF1F7A0C0000F7B50D469F
:101D900080490098164642187F4F00247879B97917
:101DA0001300FEF775F9190E141BE9204045597010
:101DB000777E888FE996A2A9B4BFC8E9E9E9E9D39B
:101DC000E900102D76D11022314674486FE0102DB5
:101DD00070D1724810223146103068E0042D69D16C
:101DE0003068F862CEE0012D64D13B7832783A70E9
:101DF000002B0AD0002A07D1022903D0062901D0DE
:101E0000042901D100F068FABCE0002A0AD00129B7
:101E100005D0032903D0052901D0042902D10121CD
:101E2000FEF75AF9AEE0022D44D13088B881A9E01E
:101E30001F2D3FD858481F2200214230FEF71CF9C1
:101E400055482A4631464230FEF7F2F8524B7D7033
:101E500042332A46012112E01F2D7CD84F481F2211
:101E600000211F38FEF708F94C482A4631461F3832
:101E7000FEF7DEF8494B2A461F3BBD7000217879FA
:101E800000F0FEFC83E0012D65D13078042862D893
:101E9000387277E0012D5ED1307803285BD87872F4
:101EA00070E0062D57D13C48062231463030FEF70F
:101EB000BFF867E04FE0012D4DD1307807284AD8B0
:101EC000B8725FE0012D46D13078032843D8F8720C
:101ED00058E0022D3FD13288BA82002A52D005291B
:101EE00050D10221FEF7ECF84CE0012D33D13078CF
:101EF000012830D8F87045E03088022D2BD1062813
:101F000029D31921C901884225D8F8823AE03088BE
:101F1000022D20D106281ED31921C90188421AD8C2
:101F200038832FE03088022D15D1FF21F53188420A
:101F300011D2788326E03088022D0CD10A280AD3EA
:101F40001921C901884206D8B8831BE03178012DD8
:101F500001D1012901D0182414E00821FEF7C2F8AC
:101F6000002801D016240DE0002004F02BFB0421F2
:101F70007879FEF7ABF805E00098272801D2022D0A
:101F800002D002242046FEBD318800F0F3FB044657
:101F9000F8E70000FFFCFFFFAC78FF1FC9B7FF1F89
:101FA0001CB50B4CA179002901D011201CBD0028C3
:101FB00000D06062064907482C3103460191009029
:101FC000103B0022E179607900F038F900201CBD57
:101FD000AC78FF1FD9B7FF1F10B5064881790529D6
:101FE00001D0122010BDC1891322407900F008FCF5
:101FF00010BD0000AC78FF1FF8B504462C480F4612
:102000000078022805D0012803D0082803D1002F2A
:1020100001D01220F8BD002C07D02088254D81006A
:102020006958002903D01120F8BD0220F8BD07F03F
:102030009DFE060036D02C20FEF75AF82188890034
:102040006850002830D02C220021FEF715F8208897
:102050001C228100695848802088211D8000285852
:10206000001DFDF7E5FF21880220890069580870EE
:10207000228890002B5870791B1D002816D0002054
:102080000D49097801F0FCFB0546002F03D03946C5
:10209000304609F039FE002D02D0208803F0E0FB25
:1020A0002846F8BD1420F8BD1320F8BD0120E7E74D
:1020B000757AFF1FE07AFF1F057BFF1FFFB5204DDC
:1020C00081B028781E461746022823D0012821D047
:1020D000002F22D0019807F049FE04001FD0606A4B
:1020E000002801D0FEF70AF81C213846FEF70CF84C
:1020F0006062010015D02878000714D5002E12D098
:10210000887E00900B4612330A8A01980AF0CCF8B8
:10211000014609E0122005B0F0BD0220FBE71420C3
:10212000F9E71320F7E700212079042210432071FA
:10213000029A002A02D00222104320710846EAE7E0
:10214000757AFF1F10B505480078000701D50448CF
:1021500000E0002004F0DEF810BD0000757AFF1FDB
:102160006C7AFF1F70B50C4C05460121207803F0F6
:10217000A3FB0A480A210078084207D020462570B0
:10218000083004F0C1F802F047FE70BD0020207056
:1021900004F0BAF8002070BD5C7AFF1F757AFF1F4B
:1021A00038B5234D04462868002801D0112038BDD9
:1021B00020480A210078084201D1122038BD0420AD
:1021C000FDF796FF286000282FD004222146FDF756
:1021D0002FFF00F0A5F9002805D00C2000F024F90D
:1021E00005460D2007E06078022812D0102000F08C
:1021F0001BF90546112000F017F90246E078002887
:1022000000D0012000900C480078002807D001235E
:1022100006E0122000F008F905461320EBE7002342
:10222000A0782946FDF776FF38BD132038BD0000A1
:10223000D07AFF1F757AFF1F767AFF1FFFB51E4603
:1022400081B017460D4602240B00FDF721FF0D213A
:102250000B0B0B0B210B210B0B21210821000EA0D6
:1022600001F0DEFE2946019800F05EF904000FD16E
:1022700030460B9A0A9900F035FA3846FFF772FF9C
:10228000FFF760FF01F022FA00F08EF901F0BCFACE
:10229000204605B0F0BD00004741505F44657669B7
:1022A0006365496E69743A204741505F50524F460A
:1022B000494C455F43454E5452414C207C20474198
:1022C000505F50524F46494C455F50455249504827
:1022D0004552414C200A000070B5104C216800297D
:1022E00004D00978814203D0032070BD122070BD54
:1022F0000B4D02212878FDF7E9FE0A4800264680AA
:1023000004212878FDF7E2FE0748068021680320B3
:1023100048700020FDF704FF70BD0000D47AFF1F55
:10232000057BFF1FE87AFF1F787AFF1FF0B505468F
:102330003A4889B00078000702D4122009B0F0BDF5
:1023400003F03EFB002801D01020F7E700F0E8F88A
:10235000002801D01520F1E7314C2068002801D079
:102360001120EBE70A20FDF7C3FE2060002851D0C2
:102370000A222946FDF75CFE20684078002805D037
:102380000E2000F051F808900F2004E00C2000F01F
:102390004BF808900D2000F047F8054621480078DA
:1023A000002835D001261C2000F03EF804901B20A8
:1023B00000F03AF80390192000F036F802901A2045
:1023C00000F032F80746162000F02EF80190152094
:1023D00000F02AF800902168C878091D02F0D8FCA6
:1023E000034602A807C8049705AF07C722680199EA
:1023F00000980391141D029001960094927829464A
:102400000898FDF793FE040005D003F049FA02E0B6
:102410000026C8E71324204690E70000757AFF1FC6
:10242000DC7AFF1F767AFF1F272803D2024940007B
:10243000085A704701487047807AFF1FFFFF00006D
:1024400010B5064C607007F0C1FC6078FDF774FEB3
:102450000521607801F05AF810BD0000047BFF1FD1
:1024600070B5284E054630680C46002801D0112072
:1024700070BD254801780520014216D023488068A8
:10248000002805D00078002802D0C80706D101E056
:10249000102070BD00F044F8002808D020780328F0
:1024A00005D0022803D0002801D0122070BD0C20D6
:1024B000FDF71EFE3060002820D00570002141701D
:1024C0000A222146801CFDF7B3FD04F027FA040020
:1024D00002D003F0B9F912E00D48007803280ED1BC
:1024E0001D20FFF7A1FF0B490028088007D00B48EB
:1024F000094A04210078FDF725FE00E01324204658
:1025000070BD0000D47AFF1F757AFF1FE87AFF1FA5
:10251000767AFF1F787AFF1F60EA0000057BFF1FB5
:1025200010B507F071FC10BD70B50C4605461C22B5
:1025300000210948FDF7A0FD084805704470FDF72B
:1025400007FE0549002803D000200870122070BD46
:1025500001220A7070BD000068E2FF1F747AFF1F3D
:102560007FB504460D46084607F000FC002805D05C
:102570000C48844204D9022004B070BD1220FBE74D
:10258000102200216846FDF777FD68460470210A95
:102590004170210C8170210EC170294601F0A6F80E
:1025A000EAE700003F420F0070B50F4C0025A0681D
:1025B000002802D0FDF7A2FDA560E068002802D047
:1025C000FDF79CFDE560094805210078084206D02A
:1025D0000548103003F0A4FE02F0F4FB70BD0020AB
:1025E00003F09EFE002070BDE87AFF1F757AFF1F82
:1025F000FEB5344D0C46080419D56878FDF730FD5A
:102600000121C9034C40064600280ED003F06CFDA2
:10261000002807D12878FF2804D03146FDF79EFD19
:10262000002802D03046FDF721FD2046FEBDE00720
:10263000012700280AD0A868002804D04168002992
:1026400001D00020884720467840FEBDA00709D56C
:102650006868002804D04168002901D0012088471B
:1026600002202AE060072AD5174E308800281FD0A4
:10267000401E0004000C30801ED103F099F90028A0
:1026800009D0124807706868002804D04168002902
:1026900001D00120884703F065F9694600F094FFF6
:1026A000684603F00BFD1D20FFF7BEFE308003E0FF
:1026B00004216878FDF70AFD04206040FEBD00207B
:1026C000FEBD0000047BFF1F787AFF1F777AFF1F93
:1026D0000149087070470000047BFF1F10B501F02E
:1026E0006DF810BD70B50E4C0B46261D07C605468D
:1026F000102200211846FDF7C5FC012803D1102146
:10270000A06809F09BF8102200212846FDF7BAFCCA
:10271000012803D11021606809F090F870BD000015
:1027200068E2FF1F38B505460F480C4600784007A1
:1027300001D4122038BD284607F018FB002811D01C
:102740000A48A9004058002801D0817D00E02146B8
:10275000684609F0FFFD064B6A460221284609F04B
:102760005FFD38BD142038BD757AFF1FE07AFF1F6A
:1027700061C80211272807D2044A914204D0044AB2
:10278000400011520020704702207047FFFF0000F8
:10279000807AFF1F70B50E46104915460978022948
:1027A00016D0012914D0002D14D007F0DFFA040050
:1027B00012D0002E03D0207902210843207110226C
:1027C0002946A018FDF734FC28692062002070BD5E
:1027D000122070BD022070BD142070BD757AFF1FDD
:1027E00038B50C46054607F0C1FA002806D0684601
:1027F00004706946284609F001FD38BD142038BD33
:10280000F8B50D4617461D4906461B4A1224C868EE
:10281000954208D100282DD00268002A2AD02946E6
:102820003046904723E0144A521C954213D10028A9
:1028300007D00268002A04D0294630469047040099
:1028400005D03946304601F0ECFB040012D10B48AC
:10285000067047700EE0284607F088FA002809D075
:102860000078B04205D139462846FDF77DFC044684
:1028700000E003242046F8BDFEFF0000D87AFF1FC9
:10288000F8B50E46014619481546007805221F4640
:10289000104028D0304326D01548012E1BD0C468E4
:1028A000002C20D01F2D18D8002D01D0002F14D0BF
:1028B00001701F220021601CFDF7DEFB2A4639460D
:1028C000601CFDF7B5FB28462570002E07D0611C63
:1028D000FDF750FCF8BD8468E2E70220F8BD611CFA
:1028E000FDF74EFCF8BD1220F8BD0000757AFF1F01
:1028F000E87AFF1F014610B50020C90704D0034A3B
:102900000421034800F0ACF910BD000024D80211E6
:10291000E877FF1F70B50F4D0F4CA870294618318E
:10292000204600F01DF8002128460B461030CA0052
:1029300084521218491C09065360090EF7D0012071
:1029400005F0BCFAA87800F0FDFB044807F084FA13
:1029500070BD0000C877FF1FFFFF0000F576021171
:1029600070B50A4C0025A04209D1002082008C528B
:102970005218401CC0B295700228F7D370BD04F005
:1029800088FE0028FAD00480857070BDFFFF00002B
:10299000F8B50E460746069900240798002902D08C
:1029A0000B242046F8BD022B01D00D24F9E7117845
:1029B0005278120289188DB22946814301D08024B1
:1029C000EFE73846F16800F03DF9A842E9D02A4621
:1029D0003846F16800F0CCF90400E2D171892A464A
:1029E000384600F06BF9DCE770B50C46080412D5E8
:1029F0000A488078FDF734FB050008D02878B02815
:102A000002D1284604F062FF2846FDF72FFB012083
:102A1000C003604070BD002070BD0000C877FF1F7C
:102A2000FFB587B0087A0025109E1C460F46C006E9
:102A30000DD5099804F026FE030006D00A22394677
:102A400007989847050035D101E00E2532E0387827
:102A500002281DD1786829220178407812020002EC
:102A6000081880B2811A90427ED009DC7249401A5F
:102A700023D0012821D0022851D0032808D125E0F5
:102A8000012972D0022971D003296DD004296ED09A
:102A9000099804F01FFE0028D7D00568002DD4D077
:102AA00012991198019100903346224639460798B1
:102AB000A847054628460BB0F0BD1198002873D1F1
:102AC000F868017831800278416897E01198002811
:102AD0006AD101203080F868002100782070788960
:102AE000401C80B200F0CAF900280FD0318802786B
:102AF0008918891C3180817A61704189090AA17025
:102B000002784168E01CFDF793FAD3E7308804228D
:102B1000001D30800021601CFDF7AEFACAE7119855
:102B2000002872D1F86804A9008800900420308041
:102B3000009820700098000A6070009800F09EF9DC
:102B4000070028D0F86805906846028A03AB3B4925
:102B5000384600F0EBF900280FD13B7802213848C5
:102B60007A68FDF7D6FF03E027E031E01DE049E099
:102B7000002802D1314869468881059800780228EA
:102B80000CD1059802224168201DFDF751FA3088CA
:102B9000801C308002E06946009888816846808900
:102BA000A070000AE07085E72FE0119800282CD172
:102BB000F968079800F046F804E01198002824D13D
:102BC000F8680088022131802070000A607071E787
:102BD000F868FDF7DBFA1199C0B2814210D8814242
:102BE00001D1002206E0129A8918814202D311997C
:102BF000401AC2B23280F96811980918204682E75B
:102C0000072557E71198002801D00B2552E7072127
:102C1000F868318001782170417861708178A17005
:102C20004188090AE1700179217181796171C08857
:102C3000000AA0713EE7000000280000FFFF00002E
:102C400012DA021110B504F024FD002800D08078BB
:102C500010BD00000149087070470000C877FF1FD1
:102C60007CB51446050019D068460195018000F036
:102C70006FFA03001DD1002C1BD06D89002D0DD0E3
:102C80000C20FDF735FA00280AD000230360858068
:102C9000094A84609168002904D006E0022308E014
:102CA000132306E0906004E011460A68002AFBD175
:102CB000086018467CBD0000C877FF1FF8B50C4CB3
:102CC0000746207815460E46FF280FD00A20FDF74C
:102CD00063FA01000AD0B120087000204870087122
:102CE0004F80CE800D812078FDF738FAF8BD0000C6
:102CF000C877FF1F70B50C4605460649FFF7A2FFCF
:102D0000800704D52146284600F076FA70BD0120E0
:102D100070BD0000E077FF1F1CB56B461A71120AE8
:102D20005A7100220092022301AA00F001F81CBD92
:102D3000FFB583B008461F4601A90C9E00F09EF81F
:102D4000050012D06846808804F0C4FC00280AD030
:102D50004468002C07D000963B462946059A039804
:102D6000A04707B0F0BD0E20FBE70120F9E7000007
:102D700070B514460E46054604F08BFC002806D1BB
:102D80003146054804F085FC002803D00580847096
:102D9000002070BD112070BDFFFF000010B501784C
:102DA000B0290BD14178002908D10179122906D028
:102DB0001B2903D14088012100F032FB10BDFF2107
:102DC0000231095C0129F5D010BD10B586B06C4602
:102DD0002180628002212171032161712821A1716A
:102DE0000022694604F0E4FB06B010BDF0B58BB0DC
:102DF00001236A4693819B1ED3810223137400230F
:102E0000537428230D469374064603AF02A903F0BA
:102E1000ABFF04000CD139463046FEF70DF9040033
:102E200006D1054B112239460095029805F07AF932
:102E300020460BB0F0BD00008F0E0211FEB50E460D
:102E40001546074601A903F08FFF04000FD1314654
:102E50003846FDF7A3FE040009D1064930880880F2
:102E6000054B032231460095019805F05BF9204699
:102E7000FEBD0000587AFF1F0B0D0211F0B58C4605
:102E800010494B6819E09F687C89A04214D39E8842
:102E90003119814210D900220CE011017D18698995
:102EA000814205D16046002800D004802846F0BD4C
:102EB000521C92B29642F0D81B68002BE3D100203E
:102EC000F0BD0000147BFF1FFFB5174881B00A9FBB
:102ED000446824E000251EE0A06829014618708996
:102EE0000199884215D30299884212D80498002883
:102EF00007D031787068049B039AFDF70AFE00281A
:102F000007D0002F02D0A06840893880304605B035
:102F1000F0BD6D1CADB2A088A842DDD82468002C9D
:102F2000D8D10020F3E70000147BFF1FFEB5174641
:102F300000256A469580044640891D4A1E469042F7
:102F400008D001AA0092401C237880B26268FFF783
:102F5000BBFF05462378022116486268FDF7D9FDBC
:102F6000002807D12378022113486268FDF7D1FDBC
:102F7000002801D060890EE0237802210F486268A2
:102F8000FDF7C7FD00280DD0002D03D068468088CE
:102F9000B84203D0384605F0A5F804E06889401E21
:102FA00080B200E06089002E00D030802846FEBD4F
:102FB000FFFF000010DA021112DA021116DA021114
:102FC000FFB581B00F461E4614466946019803F0CE
:102FD000E1FE050018D1002C06D001221021019835
:102FE00006F09EFE05000FD139460198FDF758FE08
:102FF000050009D1009CFF2E06D021461E22A31CED
:10300000034805F07BF8E670284605B0F0BD0000E7
:10301000E97F021110B505490870042100F076FA25
:1030200000F034F8FDF750FE10BD0000247BFF1FB8
:10303000F8B50024124F2546FF26FF200D306043CF
:10304000C019002C19D00021C94301808570467237
:10305000FF21067209310D54FC2200210C30FDF7CE
:103060000BF8641CE4B2022CE7D3064804F0D4FA4F
:10307000054806F0F1FE0020F8BD0121C943E4E750
:1030800084E2FF1F2D6C0211756B021170B50E4C9E
:1030900000200C4B651CFF228100C91800280ED0AF
:1030A0000D80401CCA70C0B28A700228F4D3074851
:1030B00004F0B8FA064806F0CFFE002070BD0C8080
:1030C000EFE700001C7BFF1FFEFF000015800211D0
:1030D000697F0211F8B50D4614460646694603F0AD
:1030E00059FE17280CD0002C06D0012210213046A2
:1030F00006F016FE002803D129463046FDF7DAFD1A
:10310000F8BD000070B50C46080411D509480078D8
:10311000FCF7A6FF050007D00178A02901D104F033
:1031200095F92846FCF7A2FF0120C003604070BD5E
:10313000002070BD247BFF1F01490870704700000C
:10314000107BFF1F0149087070470000147BFF1FB0
:1031500070B50546008800281DD0686802210378F4
:1031600042682248FDF7D5FC002808D16868022192
:10317000037842681E48FDF7CCFC00280BD01D4C9C
:103180006088002805D0012229881204101A814283
:1031900003D9012070BD022070BD0C20FCF7A8FFF0
:1031A000060001D000200AE0132070BD02016B6808
:1031B00061880A329952491C401C618080B229887A
:1031C0008142F3D80020306008222946301DFCF7E8
:1031D0002FFF6068002802D1666004E0084601689D
:1031E0000029FBD10660002070BD000010DA02113A
:1031F00012DA0211147BFF1F70B5BEB00D460646F1
:10320000002402230E4A0F4901200094FFF75CFEC0
:10321000002812D040896A46108004205080012086
:1032200010715471FF209071D0712B4600226946B5
:103230003046FFF7C5FE3EB070BD0120FBE7000041
:103240002EDA0211FFFF00000649496806E08A688D
:103250005289824201D18888704709680029F6D1D5
:1032600000207047147BFF1F10B51422114201D0BB
:10327000012202E04A0604D50022102106F050FD8A
:1032800010BDC80701D0002010BD022010BD10B530
:1032900014468A0604D50122102106F041FD10BD16
:1032A000882211420ED008220A40102106F038FD73
:1032B00000280BD0E034617E0029F0D0217E012966
:1032C000EDD103E0880701D4032010BD002010BD1C
:1032D00010B504F047FF10BD014610B50020C90726
:1032E00004D0034A07210348FFF7BAFC10BD0000D1
:1032F00010D802115477FF1F70B50D4616460024F2
:103300001D490300FCF7C4FE0805123434193422A9
:103310002934152D23D8162200211848FCF7ACFEBD
:103320002A4631461548FCF783FE22E0022D16D1CD
:1033300011491088103908801BE0082D0FD10E4864
:10334000082231460838FCF72DFF12E0012D06D186
:10335000CA6909493078283107E0012D01D01824C5
:1033600007E0CA6B04493078483104F0CEFF00E032
:103370000224204670BD00005477FF1F0EB3FF1FCC
:103380000B7803700B8802221B0A43700B88801C89
:10339000012B02D0022B07D011E08A7802704988F5
:1033A000090A417004220AE08A7802704A88120AE7
:1033B00042700A7982708988090AC1700622104613
:1033C00070470A7802700988090A41700220704724
:1033D00008B5044B009313460A46012106F0F0FBA2
:1033E00008BD0000813302111CB503230192009334
:1033F0000A46024B122106F013FC1CBDE194021197
:1034000008B5044B009313460A46132106F0D8FB77
:1034100008BD0000C333021110B5FCF7C9FE10BD92
:1034200013B504480078012803D101AA6946FCF7C6
:10343000C5FE1CBD307BFF1F70B50F490F4A0870D9
:1034400000210B468C00491CC9B213530429F9D33F
:103450000A4C00211034FF260A460A256A43151932
:103460006B80491CA354C9B26E720329F4D3FCF7D4
:10347000ABFE06F079FB70BD317BFF1F9CE4FF1FA4
:10348000082A01D0012070474B780A781B02D21815
:103490000280CB788A781B02D21842804B790A7955
:1034A0001B02D21882808A79C97909025118C18019
:1034B0000020704770B50C46080411D50948007803
:1034C000FCF7CEFD050007D00178902901D106F068
:1034D000ADFA2846FCF7CAFD0120C003604070BD6C
:1034E000002070BD317BFF1F70B500280AD1064C4B
:1034F00000252580A581A580A068002802D0FCF7C2
:1035000069FEA56070BD000048E5FF1F072907D0D0
:10351000052905D0042903D0062901D002207047CF
:10352000044A8B009A181346403B1986203A90743F
:10353000002070479CE4FF1F70B506001BD10E4CA5
:103540000025214640310D744D740D76606D0028C4
:1035500002D0FCF73FFE65655C2000254643341928
:10356000E80020184068002801D0FCF733FE6D1CED
:10357000EDB20A2DF4D370BD58E5FF1F70B50A886F
:103580000C460546072A07D0052A05D0042A03D091
:10359000062A01D0022070BD012106F08BFC002814
:1035A00004D02146284605F0B1FF70BD142070BD3F
:1035B00010B5001D80B2FCF713FE002803D00321D4
:1035C000C943FCF713FE10BD38B50C46050014D0F6
:1035D000002C12D00321684608F030F9694688783B
:1035E00040218006800E084369468870224628469E
:1035F00008F070FF050002D006E0022038BD03226B
:103600006946E01CFCF714FD284638BDF7B58EB0BE
:103610000E9815460E4600282DD0002D2BD0301DBB
:10362000C0B20190FCF764FD040039D002F0A6F9A5
:1036300007463246201D0E99FCF730FDF8B208907F
:10364000E0703804000E0B90A0703802000E0A9053
:1036500060703F0E277002F08BF90146102202A81D
:10366000FCF71CFD06AB214602A8019A08F088FE73
:10367000060003D010E0022011B0F0BD08982870B9
:103680000B9868700A98A870EF70082206A9281D88
:10369000FCF704FD02F078F92046FCF72FFD00E06E
:1036A00013263046E8E7000010B5064C2070FCF702
:1036B000A3FD06212078FFF729FF034806F0CCFB85
:1036C00010BD00004C7BFF1F35BA021110B5054834
:1036D0000078000701D5044800E0002008F07EFBD8
:1036E000002010BD757AFF1F347BFF1FF8B50E4612
:1036F0001F4C0146B50060590027002807D024223E
:10370000125C022A05D0032A03D0042A01D0122019
:10371000F8BDC288B24201D00220F8BD10220C30A0
:10372000FCF786FC60591021353008F087F86159A4
:1037300030460B460A46253335320C3108F0ECFE94
:10374000605902210278002A427807D0032A0BD15F
:103750004170304608F03CF8074605E0042A02D0E4
:10376000032A03D000E041703846F8BD0521EFE799
:10377000807BFF1F70B50C46080419D50D480078F2
:10378000FCF76EFC05000FD008F074FA002808D191
:1037900009480078FF2804D02946FCF7DFFC002800
:1037A00002D02846FCF762FC0120C003604070BDD7
:1037B000002070BD4C7BFF1F047BFF1F7CB50C46B7
:1037C00005001DD0002C1BD00322E11C6846FCF72D
:1037D0002FFC6946887840218006800E08436946A0
:1037E000887001AA284608F075FE002807D1032238
:1037F000214601A8FCF728FC012803D001207CBD4C
:1038000002207CBD00207CBD10B505480078400733
:1038100001D5044800E0002008F0E6FA002010BDC1
:10382000757AFF1F407BFF1FF0B587B00C9E1C46CA
:103830000D00074614D068460276110A4176102220
:103840000021FCF719FC324629466846FCF7F0FBDC
:10385000002C08D00822214604A8FCF7E9FB07E069
:10386000022007B0F0BD0822002104A8FCF704FCE8
:103870006B4606AA04A93846FCF7C4FCF1E7000031
:10388000FFB581B00020274C9500009060591E467E
:103890001746002802D0112005B0F0BD002E0BD035
:1038A0002120FEF7C1FD317E884205D82220FEF797
:1038B000BBFD317E884201D20220EDE77820FCF783
:1038C00017FC605100282AD078220021FCF7D4FB95
:1038D000615900204870625901991170625902992A
:1038E00091706259FF21D1706159CF8061598E600A
:1038F000615908626159203108710198002803D08C
:10390000384607F07BFF009061590120487000980D
:10391000002802D0384607F02DFF0098BCE713209E
:10392000BAE70000807BFF1FFFB58DB00F98169C93
:103930000E46002815D0002C13D00D9806F016FA6C
:10394000050011D06178207809024018A178E2784A
:103950000904120689184718286AB84206D3401C81
:1039600004D0022011B0F0BD1420FBE7002E04D0DB
:103970002879800701D40120F4E70822002106A855
:10398000FCF77AFB1098001DC0B20190FCF7B0FB69
:10399000060017D0301D109A0F99FCF77FFB042208
:1039A00021463046FCF77AFB1022A91802A8FCF742
:1039B00075FB06AB314602A8019A08F0E1FC050050
:1039C00002D013E01320CDE7082206A908A8FCF7CF
:1039D00065FB0822211D08A8FCF736FB012801D051
:1039E000012503E039460D9803F01EF83046FCF738
:1039F00085FB2846B6E7000030B585B02C4C6946FB
:103A00002073207808706A4601212A48FEF72EF8B4
:103A1000E1890220FEF7AEFEE1890320FEF7AAFE4F
:103A200006211520FEF7A6FE0A211620FEF7A2FEAB
:103A3000214A15210020FFF75FFC00206946009015
:103A4000087108720873087481206A460421C00056
:103A5000FDF7B4FE012101AA8802FDF7AFFE15486B
:103A600002AA0121801EFDF7A9FE124803AA012126
:103A7000401EFDF7A3FE0F4804AA0121801CFDF79C
:103A80009DFEFFF7D5FA207BFFF756FB0025ED439F
:103A90002846FFF721FC2846FEF72CFF0748FCF7D5
:103AA000B7FB0121207BFCF717FB05B030BD000000
:103AB000E479FF1F0404000078D902119EBAFF1FA9
:103AC000F8B52C4D0C4608040FD5287BFCF7C8FA36
:103AD000050007D00178B02901D107F00DFB284679
:103AE000FCF7C4FA0120C0033FE0E00701260028EC
:103AF00009D02148FDF7EAFF1F480830FDF7BCFD5B
:103B000020467040F8BDA00710D50020687368708B
:103B10002A789620424300211848FCF7ADFA00228B
:103B200001210320FDF7E8FF02201EE0600703D516
:103B300000F00AFB042018E0200711D510A000F0C7
:103B40006FFA1A4A00211A48FCF796FA19A0006881
:103B50000090EE70297B288AFFF748F9082004E0DE
:103B6000200604D500F092FA80206040F8BD0020C5
:103B7000F8BD0000E479FF1F68D902117ECEFF1F57
:103B80003D3D3E73696D706C65424C4543656E7496
:103B900072616C5374617274446973636F76657299
:103BA00079536572766963650A000000241200008B
:103BB0005ABCFF1FF0FF000030B55D4C8BB0A07009
:103BC00006211F20FEF7D6FD012168460172017310
:103BD000072101740021818256480188684681834B
:103BE00055480188684601845448018868468184A4
:103BF000534801886846018552A003C8019100908E
:103C000021786846017606AA01215048FEF7BEF8E1
:103C10004E486A460621801CFEF7B8F8C32004AA65
:103C200001218000FEF7B2F8484802AA0121001FD6
:103C3000FEF7ACF8454805AA0221C01EFEF7A6F81B
:103C4000434801786120C000002901D0414A04E0C6
:103C50004149414A0978491CC9B2FEF797F83F48E3
:103C600001783A48801E002901D03D4A02E03E49D1
:103C70003C4A0978FEF78AF8312003AA01210001A5
:103C8000FEF784F8314807AA02210830FEF77EF8D3
:103C90002E4808AA02210930FEF778F82B4809AA15
:103CA00002210A30FEF772F8C5200AAA022180001C
:103CB000FEF76CF81E4A15212E320020FFF71CFB80
:103CC0002A48008885B229460620FEF753FD29467A
:103CD0000720FEF74FFD29460820FEF74BFD294639
:103CE0000920FEF747FD0020C04300F073F820488C
:103CF0000078002801D006F08FFC0D48001D00F070
:103D000087F8F7250120FCF789FA0120FCF78CFAE7
:103D10002846FDF7E1F90121A078FCF7DDF9A0784C
:103D2000FEF7D6FC1348FCF773FA0BB030BD000069
:103D3000007AFF1FEE75FF1FF075FF1FF275FF1F62
:103D4000F475FF1F010203040506000009030000CB
:103D5000EC75FF1F8385FF1FD575FF1FD475FF1FEF
:103D60006485FF1FB475FF1FD375FF1FB075FF1F5C
:103D70001176FF1F12E0FF1F38B50C4608040AD564
:103D800012488078FCF76CF9002801D0FCF76EF936
:103D90000120C00316E0E0070125002808D00B48E9
:103DA0001030FEF7FDF8FCF745FA2046684038BDB4
:103DB000200709D5684605706A4601210448FDF7C9
:103DC000E5FF0820604038BD002038BD007AFF1FA5
:103DD0000503000070B50546002409490948FEF7AF
:103DE000BFFD094806F038F8E80706D00448074A3E
:103DF00006212830FEF734FF0446204670BD00003F
:103E00004479FF1FFFFF0000A5B502115CD9021124
:103E1000002803D0024948600020704711207047F5
:103E20003479FF1F10B57D21C003C900FCF712F9DA
:103E3000FCF7F2F810BD000010B50549087000202D
:103E400009F06AFC034A04492520FCF7F9F910BD82
:103E5000487AFF1F319302111D930211C80704D045
:103E6000024A7620D0600120484070470020004080
:103E7000002805DBC106C90E012088400149086001
:103E80007047000000E100E08307FF22DB0E9A404C
:103E90008907090E9940002808DB830809489B0020
:103EA0001B18186890430843186070470007000FFC
:103EB0000838830804489B001B18D86990430843BE
:103EC000D861704700E400E000ED00E08307FF22C6
:103ED000DB0E9A408907090E9940002808DB830809
:103EE00009489B001B1818689043084318607047E6
:103EF0000007000F0838830804489B001B18D86986
:103F000090430843D861704700E400E000ED00E012
:103F100030B50F4A142900D914211170C9B20B46CB
:103F20000C4A491C1170002104E0445C5518491CDE
:103F3000AC70C9B29942F8D30020142904D25318A6
:103F4000491C9870C9B2F8E703490120087030BDD8
:103F5000EB75FF1FD575FF1F1076FF1F0A4610B5C2
:103F60000146002005F0A6F910BD10B5FCF76EF96A
:103F7000002010BD10B5FCF76FF90120FCF772F9B5
:103F800010BD0000FFB583B00F4603981B494000E9
:103F90001646085AFFF70CFB04002AD00125601CC6
:103FA0002670002F03D00699B847401C85B2300612
:103FB00010D51021039805F07DFF002801D01926A7
:103FC00013E06219E9B22046FFF720FB06000CD18E
:103FD0000C35ADB204216846018001940581694623
:103FE0000398FFF7CBFA060004D02046FCF7F2F85E
:103FF00000E01326304607B0F0BD0000567AFF1FE0
:020000041102E7
:1040000001680A0508D11031044A01605278120390
:10401000914201D3891A0160704700001477FF1F95
:10402000704710B50C4605F0B5FE002804D0408856
:104030002146FCF799F810BD122010BD30B5114B88
:104040001C78002C1CD0104B632C03D08C4217D151
:10405000002111E0002005210D1A145C5D5DAC42C9
:104060000ED1401CC0B20628F6D307E0425C5D5C6E
:10407000AA4205D1491CC9B2A142F7D3012030BDE3
:10408000002030BDA675FF1F5085FF1F10B50B4CDB
:104090008021207BFCF71AF80949002008700948A4
:1040A0000068002800D0804707480078002804D026
:1040B00064220221207BFCF703F810BDE479FF1F86
:1040C000A775FF1F0476FF1FA675FF1F10B50748D1
:1040D0008021007BFBF7FAFF0549012008700548A5
:1040E0000068002800D0804710BD0000E479FF1F61
:1040F000A775FF1F0076FF1F10B50B4C2078002816
:1041000004D00A480068002800D0804700202070B2
:1041100007480078002805D0064864220221007B69
:10412000FBF7CEFF10BD0000A775FF1F0876FF1F2D
:10413000A675FF1FE479FF1F024A1268002A00D00B
:10414000104770470C76FF1FF8B50024134F14E09A
:1041500096202146414312480E1835461F35284601
:10416000FCF786F8002806D1284604220DA1FBF7AB
:104170005FFF0420B077641CE4B278788442E7D310
:104180000A480168002901D07878884708480078F3
:10419000002801D007F06EF8F8BD0000E479FF1F99
:1041A0007ECEFF1F6E756C6C00000000FC75FF1F5B
:1041B000A675FF1F70B51A481A4900880870020AD0
:1041C0004A701949194B09881970090A5970184918
:1041D000184B09881970090A174C59706071174DEE
:1041E000A2716878002801D000F09CF81449287862
:1041F0000870144800780A2801D30838E07100F0EC
:10420000B5F81148114900781422401C0870104874
:10421000891CFBF70DFF0E490020087570BD0000DA
:10422000A875FF1FCC79FF1FAA75FF1FDE79FF1F3E
:10423000AC75FF1FE079FF1FB475FF1FA475FF1F4A
:10424000480AFF1FD375FF1FEB75FF1FD575FF1FB2
:104250002E7AFF1F10B508490848FDF75BFC064C95
:10426000A41E2078002804D105480068002800D04A
:1042700080470120207010BDF875FF1F0E0300005D
:104280001476FF1F70B5064C002565702078002855
:1042900004D004480068002800D08047257070BD15
:1042A000F675FF1F1876FF1F044900204870044868
:1042B0000068002800D0004770470000F675FF1F17
:1042C0002076FF1F04490120487004480068002838
:1042D00000D0004770470000F675FF1F1C76FF1FD7
:1042E0003EB50B4A0B4C1278EC2A0BD00AA007C83B
:1042F0006B4607C36846FBF7BBFFC1B2226868463E
:1043000090473EBD2268002AFBD090473EBD00008A
:104310002876FF1F2476FF1F6563696F742E636E16
:104320000000000008480749C16002461021203201
:104330001170421A426250321170014620394164B4
:104340007047000054D902116C79FF1F10B5044664
:10435000014602220448FBF791FF0422A11C10032E
:10436000FBF78CFF10BD00000440000000B51948A9
:104370008DB00078EC280CD017A207CA6B4607C393
:104380006846FBF775FFC1B26846FFF7C1FD0DB087
:1043900000BD144800780028F9D10490059004A8C5
:1043A000FFF7D4FF1C2106A8FBF76EFF6846437D8C
:1043B000027DC17C807C03936B4607C36846437CC7
:1043C000027C09A106A8FBF765FF0F2106A800F0F3
:1043D0002DF8DCE72876FF1F6563696F742E636E26
:1043E000000000001076FF1F42545F253032582530
:1043F0003032582530325825303258253032582541
:1044000030325800084A002807D0012807D0022877
:1044100007D0032800D11161704751607047916047
:104420007047D160704700001076FF1F10B5034A37
:104430001278EC2A01D1FFF76BFD10BD2876FF1F23
:1044400001494870704700001076FF1F014948611C
:10445000704700001076FF1F112110B50903884234
:1044600003D309034018FBF71BFF10BD38B5002428
:1044700068460470012269460648FBF7FFFE68465D
:1044800001780548FE2901D0047038BDEC21017087
:1044900038BD0000F50800002876FF1F112310B575
:1044A0001B03984208D20020FF2302E00B54401C5B
:1044B00080B29042FAD310BD11231B06C018FBF73F
:1044C000DDFE10BD112310B51B03984203D31B035F
:1044D000C018FBF7EBFE10BD00B50300FBF7D8FDDD
:1044E0000B07090B0D0F11131517191B1D001620B3
:1044F00000BD022000BD032000BD042000BD05203A
:1045000000BD062000BD072000BD082000BD092019
:1045100000BD0C2000BD0D2000BD002000BD70B509
:104520000C460546FFF7D8FF214604F0C3FB28469A
:10453000FFF7D2FF002104F08DFB2846FFF7CCFFE8
:10454000214604F0B7FB70BD10B52C4C0300FBF7FF
:104550009FFD0B070D141B222930373E454C54009C
:1045600006C4FFF7B9FF264A114644E0E260A160A5
:10457000FFF7B2FF234A11463DE062612161FFF778
:10458000ABFF214A114636E0E261A161FFF7A4FFCB
:104590001E4A11462FE062622162FFF79DFF1C4A0E
:1045A000114628E0E262A162FFF796FF194A114620
:1045B00021E062632163FFF78FFF174A11461AE07B
:1045C000E263A163FFF788FF144A114613E06264B7
:1045D0002164FFF781FF124A11460CE0E264A164F6
:1045E000FFF77AFF0F4A114605E062652165FFF784
:1045F00073FF0D4A114604F033FD10BD2C76FF1FEA
:104600006146021191460211A9460211C1460211EA
:10461000D9460211F1460211094702112147021140
:1046200039470211514702117946021170B50C4603
:104630000546FFF751FF214604F064FC2846FFF7CA
:104640004BFF012104F006FB2846FFF745FF04F06D
:1046500027FD2846FFF740FF214604F053FC70BDBC
:104660000448012903D04068002802D000470068B0
:10467000FAE770472C76FF1F0448012903D0406DEC
:10468000002802D00047006DFAE770472C76FF1F24
:104690000448012903D0C068002802D00047806880
:1046A000FAE770472C76FF1F0448012903D04069C0
:1046B000002802D000470069FAE770472C76FF1FF8
:1046C0000448012903D0C069002802D0004780694E
:1046D000FAE770472C76FF1F0448012903D0406A8F
:1046E000002802D00047006AFAE770472C76FF1FC7
:1046F0000448012903D0C06A002802D00047806A1C
:10470000FAE770472C76FF1F0448012903D0406B5D
:10471000002802D00047006BFAE770472C76FF1F95
:104720000448012903D0C06B002802D00047806BE9
:10473000FAE770472C76FF1F0448012903D0406C2C
:10474000002802D00047006CFAE770472C76FF1F64
:104750000448012903D0C06C002802D00047806CB7
:10476000FAE770472C76FF1F10B5FFF7B5FE04F08F
:10477000C3FA002800D0012010BD10B5FFF7ACFE31
:1047800004F0C0FB10BD000010B50E4901200870F8
:10479000FBF792FDFBF7B0FE0B48007801280ED026
:1047A000FBF790FD04F0C6FC04F08CFCFFF75EFE06
:1047B000FFF700FDFFF7DEFB00F016F810BDFBF77A
:1047C00087FDEFE7FA75FF1FA375FF1F10B5FFF711
:1047D000CCFB10BD10B56120FBF780FD002802D195
:1047E0006120FBF781FD10BD10B50022114661204C
:1047F000FBF726FD10BD00000749002807D001285F
:1048000006D0022806D0032803D1042000E00220AD
:10481000087070470320FBE74A0AFF1F70B5044683
:104820000078012801D002281CD10F4D227AA888D7
:104830006B881118994208D2EB6861681818FBF769
:10484000B1FC207AA9884018A880084C0121207862
:10485000FBF73CFC286900F067F80246012120784C
:10486000FBF72EFC70BD0000E076FF1FA275FF1F56
:104870000FB410B503AA0448029905F06BFB10BCF5
:1048800008BC04B0184700005D3F021110B5074C8A
:104890006269002A02D0A188E06890470020A080C9
:1048A0006188E068FBF726FD10BD0000E076FF1F81
:1048B00070B504460078012801D002281CD10F4DA4
:1048C000227A2889EB881118994208D2AB6961686D
:1048D0001818FBF767FC207A298940182881084CB2
:1048E00002212078FBF7F2FBE86900F01DF8024690
:1048F00002212078FBF7E4FB70BD0000E076FF1F8B
:10490000A275FF1F10B5074C226A002A02D0218928
:10491000A069904700202081E188A069FBF7EAFCAC
:1049200010BD0000E076FF1FE1214902884201D15D
:104930000A207047E1218901884201D30F20704786
:104940004B21C901884201D3142070474B218901B2
:10495000884201D3282070474B214901884201D366
:10496000462070474B210901884201D396207047A9
:104970004B22D2005110904201D308467047884222
:1049800002D3FF20F5307047004870474C04000008
:10499000F0B585B00D469C46144601002B482C4BC3
:1049A0000D9F0E9E0F9A28D0012924D18761C680C1
:1049B000C56144700262DA699969186901900492CC
:1049C00003916046FFF788FD694608710A98FFF772
:1049D00083FD694648710295012C34D00020C873CC
:1049E000012001AC00900FCC04F032FC01200C9AA5
:1049F0000B9904F06FFC05B0F0BDC76046800561FF
:104A000004704261DA689968186801900492039111
:104A10006046FFF761FD694608710A98FFF75CFD83
:104A2000694648710295012C0BD00020C873002004
:104A300001AC00900FCC04F00BFC00200C9A0B99F9
:104A4000D7E70120F2E70120C9E70000E076FF1F69
:104A5000E8D7021110B5002801D0012801D104F0D7
:104A600029FC10BDF0B5504E504C9BB071682160D0
:104A700071782171FF21A1711021002561712F46EC
:104A80000922FF21E01DFBF7F7FA4E22002106A8BC
:104A9000FBF7F2FA31E0206829034018102202A93E
:104AA00000F040F902982168884218D16946097BD4
:104AB0002279914213D16946497B627991420ED1A4
:104AC00068467178807B491E884224DAA84201D169
:104AD000022700E0032706A94855A0710BE0401CFF
:104AE00019D16846007BFF2815D16846407BFF2816
:104AF00011D106A948556D1CEDB22179A942CAD839
:104B0000042F08D0A0790125FF2807D0012F05D058
:104B1000002006AA24E020201BB0F0BD00270DE0F5
:104B2000A7712068390340181022204900F010F9BD
:104B3000002801D01F20EFE77F1CFFB22079401E24
:104B4000B842EDDC002020742079401E60741020F3
:104B50006082357025E0135C002B03D0401CC0B28E
:104B60008142F8D881421CD9401E0818FBF7C8FBC7
:104B700061740020357002466946009000F018F814
:104B8000002802D0212802D004E0009901E0012190
:104B900009036182C0B2212803D0002801D02A2055
:104BA000BAE70020B8E700001477FF1F54B2FF1FD8
:104BB000F7B501248AB000200E46274605909CE0F8
:104BC00056480179407CC019FBF744FAC8B2FF2C63
:104BD00003D3FF3CA4B2FF2C33D20A9A002A01D19E
:104BE0004E4A11740003029005980125002803D055
:104BF00000200590601C06E0012C05D92819811EB3
:104C0000FF2917DA401E85B202982901081807907B
:104C10004248042201680798081804A900F082F8A5
:104C20000A9800280ED0012829D002283CD006205E
:104C30000DB0F0BDFF200230401B201A84B20120CD
:104C4000059058E004988103890F04D0022902D00E
:104C500003294CD10EE00103890F012901D0012461
:104C600045E0000D0C21FBF7F5F9002900D00121EA
:104C700044183CE007980005000D306047E00498B8
:104C800081038A0F04D0022A05D0032A2FD142E0E3
:104C9000890F0229DFD1328881B292B29142DAD1F2
:104CA0000C990798086032E004988103890F04D0BA
:104CB0000229D0D003291AD129E00103890F012943
:104CC00003D0306801240C300BE0000D0C21FBF701
:104CD000C1F9002900D0012144180C20316860433B
:104CE000081830600C980C990068401C08606D1C16
:104CF000ADB2FF2D80D97F1CFFB2094840788742B2
:104D000000D25DE70A98002803D0012803D00020D4
:104D10008EE721208CE725208AE7000054B2FF1F90
:104D20001477FF1F10B5094C636898420BD3647861
:104D30002403E318834206D9002904D0002A02D0B4
:104D4000FBF79CFA10BD222010BD00001477FF1F56
:104D500070B515460E460446FBF7D8FA800601D01A
:104D6000292070BD09494868844206D3497809035F
:104D70000818A04201D9A00701D0222070BD2A4600
:104D800031462046FBF792FA70BD00001477FF1FF2
:104D90000022002913D0002811D0012806D04A791A
:104DA0009206920E4A71032805D007E04879C02286
:104DB0001043487102E0402002434A71012210462C
:104DC0007047000070B512480025007805210842A0
:104DD0001BD02020FBF78CF90E4C0028A06013D0CC
:104DE00020220021FBF748F92020FBF781F9E06041
:104DF000002804D020220021FBF73EF905E0A0683E
:104E0000FBF77CF90020A0601325284670BD000048
:104E1000757AFF1FE87AFF1F70B5104C6068002894
:104E20001AD12078002815D005012846FBF760F933
:104E30006060002810D02A460021FBF71DF90020F1
:104E40002278FF23616803E00401401C0B55C0B2C7
:104E50009042F9D3002070BD132070BD5C7AFF1F13
:104E6000F3B588880D4681005A485A4C40585A4F2D
:104E7000203C85B0002823D1059800287ED0002D45
:104E80007CD000F00DFA60740A281CD300260E2096
:104E90007043C0190622FF21FBF7F4F8002804D163
:104EA000761CF6B20A2EF2D30A2666740A2E07D1B1
:104EB000607B0A210646FBF7CDF86174761C6673A9
:104EC000607C0A2861D2A888424E800030580028B1
:104ED0005ED082680027002A0BD0607C0621484300
:104EE0002130C0B21C2105F00BFBA888800030588F
:104EF0008760A888800030580269002A0BD0607C47
:104F0000062148432230C0B21C2105F0F9FAA888D6
:104F1000800030580761A888800030584269002A14
:104F20000BD0607C062148432330C0B2102105F02D
:104F3000E7FAA888800030584761A8888000305878
:104F4000C268002A18D0607C062148432430C0B2D1
:104F5000102105F0D5FAA888062180003058C268D3
:104F6000607C103248432530C0B2042105F0C8FAF5
:104F7000A88880003058C760E07B00E005E000288A
:104F800001D000F0DFFA00F021FB012007B0F0BDF6
:104F9000607C062148432030C0B20E21059A05F0FE
:104FA000AFFA1022FF216846FBF766F8607C6A467C
:104FB0007030C0B2102105F0A3FA607C0E21484386
:104FC0000A46C0190599FBF733F8A88880003550C8
:104FD0000020DBE73C77FF1F78B2FF1FF0B589B0F8
:104FE00017460E460446202200216846FBF744F887
:104FF00068460480394C0225E178017122794271BA
:10500000217B017706984108E07A4900C307DB0F4E
:105010001943069181070029069901DA294300E026
:10502000A943069101072E4B069901D5194300E0CB
:1050300099430691C1062B4B069901D5194300E00F
:10504000994306918106284B069901D5194300E042
:1050500099430691400704210028069801DA084385
:1050600000E088430690002A05D001A810221F49BD
:105070000230FAF7DDFF6179002904D0002E02D05A
:105080000698284306906846807D002900D00121BB
:10509000084369468875A178002900D00421084397
:1050A00069468875A179002900D00821084369461E
:1050B0008875E179002900D0102108436946887578
:1050C000217A002900D02021084369468875394695
:1050D0006846FCF791FF09B0F0BD00001C77FF1F88
:1050E00000010000000200000004000068B2FF1F81
:1050F000F0B5064687B0062041430C9D1446082BA8
:105100001BD02131CFB21C2200216846FAF7B4FF30
:105110006A461C21384605F0E7F900280BD168469D
:10512000807EC01F092806D8E107C90F2B466A46B2
:105130003046FCF7C3FF07B0F0BD2231E2E70000C4
:1051400070B50025094E2C460E20604380190622BA
:10515000FF21FAF797FF002801D16D1CEDB2641C06
:10516000E4B20A2CF0D3284670BD000078B2FF1FCD
:105170007FB50C4606214843064615462036F0B258
:105180006A460E2105F0B0F9002806D10622FF215B
:105190006846FAF777FF002802D0002004B070BDFF
:1051A00068468189002DC8B202D02043C0B200E019
:1051B000A043814206D069468881F0B26A460E213A
:1051C00005F09EF90120E9E710B50024204600F023
:1051D00007F8641CE4B20A2C01D20028F6D010BDF6
:1051E00070B50546044606204443264690B0203656
:1051F000F0B207AA0E2105F077F9002806D10622A1
:10520000FF2107A8FAF73EFF002802D0002010B0C7
:1052100070BD0E22FF2107A8FAF72EFF1C22FF21E6
:105220006846FAF729FF1022FF210BA8FAF724FF9E
:10523000F0B207AA0E2105F063F906462046213098
:10524000C0B26A461C2105F05BF9064320462230B5
:10525000C0B26A461C2105F053F9064320462330AC
:10526000C0B26A46102105F04BF9064320462430AF
:10527000C0B26A46102105F043F906432534E0B276
:105280006A46042105F03CF9014631430C4670356D
:10529000E8B20BAA102105F033F92043B7E700006C
:1052A00070B50A4D064600240E20604340190622C0
:1052B0003146FAF7C9FE002801D0204670BD641CB3
:1052C000E4B20A2CF0D30A2070BD000078B2FF1FB0
:1052D00000229300CB5A834202D1900040187047BD
:1052E000521CD2B2042AF4D3002070477FB50C467A
:1052F0000A280CD2002C0AD0062148432030C0B224
:105300006A460E2105F0F0F8050003D007E0022000
:1053100004B070BD062269462046FAF789FE284689
:10532000F6E71FB5062148432030C0B26A460E2179
:1053300005F0DAF8002802D0002004B010BD68465D
:105340008089C0B2F9E700218A00835A491CDB43F7
:10535000835212189378C9B2DB4393700429F3D3B4
:105360007047000070B5144E00240E20604382196F
:1053700020460621484320301546C0B20E2105F0D4
:10538000B3F800280BD028460622FF21FAF774FE56
:10539000A81D0622FF21FAF76FFE0020A881641CD9
:1053A000E4B20A2CE1D30548C07B002801D000F00C
:1053B000C9F800F00BF970BD78B2FF1F1C77FF1F12
:1053C00010B5034940880978FDF794FC10BD000032
:1053D0001C77FF1F10B50F494A79002A01D001231D
:1053E00000E000238A78002A00D004221A438B7937
:1053F000002B00D008231343CA79002A00D01022C2
:10540000097A1A43002900D020211143FDF78AF9B7
:1054100010BD00001C77FF1F70B50E460446062124
:10542000484388B015462030C0B204AA0E2105F0CA
:105430005BF8002843D10622FF2104A8FAF722FED8
:1054400000283CD17034E0B26A46102105F04CF8D7
:10545000002831D16846FFF776FF002E06D0694656
:105460003046FFF735FF00280DD015E0102200214F
:105470006846FAF707FE00281ED110220021684670
:10548000FAF7FAFD10E0002D19D069460020FFF769
:105490001FFF002813D006808178A9420CD08570A8
:1054A000002D01D1002101806846FFF74CFFE0B2DA
:1054B0006A46102105F024F8012008B070BD0020D4
:1054C000FBE7000070B51C4C0646606A1B4D86B0B9
:1054D000002809D12046143000900223184A29469A
:1054E0000120FDF7F1FC20E004A802220021009039
:1054F0000292019103ABA28A3046616AFDF790FAED
:1055000000280CD16846017B407B00020818020489
:10551000120C04D0606A41893046FCF70DFA002372
:10552000A28A2946606AFDF701FD60620028DBD18E
:10553000012006B070BD00001C77FF1FFFFF0000B8
:105540001CDA021170B5FAF7E7FE0A4E00240E20AD
:105550006043801905460622FF21FAF793FD0028D3
:1055600002D12946FAF7DEFE641CE4B20A2CEED31F
:1055700070BD000078B2FF1F70B50B46044611469F
:105580001846FFF76DFC00281DD00F4DA4002859C8
:105590008088FFF797FF002815D02E46203EF0693F
:1055A000002807D04368002B04D0285900228088A7
:1055B000012198472859002803D0FAF757FD002009
:1055C00028510A20707470BD3C77FF1F08B5FFF7A3
:1055D000B7FD012801D9022000E00A2069460870C1
:1055E0006A4601210520FDF787FE08BD10B50D4A6A
:1055F00003460B4C12201268A14209D1002A04D0A4
:105600001078984202D1FAF793FE10BD032010BD26
:10561000034B5B1C9942FAD1002AF4D110BD000063
:10562000FEFF0000DC7AFF1F0246094B10B5012087
:10563000D21807D0012A01D0002010BD8A68127844
:10564000002AFAD08868007801F0C2F910BD000085
:10565000F5DFFFFF70B504468078002806D00528E6
:105660000DD0062816D00C281FD11BE0607800282A
:105670001BD10622E11C1248FAF7DAFC15E060782B
:105680002146002811D14A89C8780823211DFBF73B
:10569000FFFD0AE0A5882046FBF7BAFE2846FCF786
:1056A00077F902E02046FBF7B3FE05480C38406866
:1056B000002804D04168002901D02046884770BDE9
:1056C0009C75FF1F10B50178912917D0D0292DD0D6
:1056D000E02912D144681749608888420DD0012121
:1056E00004F0E8FB002808D02288231D2146124838
:1056F000FAF724FE6088FAF7DDFC10BD41780E2928
:10570000FBD181880D4A9142F7D182689178507817
:105710000902401803215156094A80B25268002AF2
:10572000EBD01268002AE8D0904710BDFFF792FF37
:1057300010BD0000FFFF00006D57021105140000AE
:105740009075FF1F084A002106234B439B185B8876
:10575000834203D10620414388187047491CC9B2CF
:105760000429F1D300207047F484FF1F10B50446CC
:10577000FF2020710820FAF70FFD010006D0E0207D
:10578000087003484C604078FAF7E8FC10BD000050
:105790009075FF1F002909D0012807D1497989098F
:1057A0008901C02902D0402901D00220704703207E
:1057B0007047FFB500200E4608701AE01C5C401CC4
:1057C000C5B2002C17D02819904214D85F5D6D1C0B
:1057D000EDB2384601F051F9002806D0641EE0B25F
:1057E000307000998F4202D1581904B0F0BD4019B1
:1057F000C0B29042E2D30020F7E70000F8B5114DA7
:10580000064668680F4600281AD0002415E069682B
:1058100020010A5CFF2A0ED040184178B1420AD11B
:1058200006223946801CFAF70FFC002803D069686D
:1058300020014018F8BD641CE4B228788442E6D305
:105840000020F8BD5C7AFF1F10B5044C20680028CA
:1058500003D0FAF753FC0020206010BDD47AFF1F5C
:1058600070B50E4D84002859002815D0006A002814
:1058700001D0FAF743FC2859406A002801D0FAF712
:105880003DFC2859806A002801D0FAF737FC2859D6
:10589000FAF734FC0020285170BD0000E07AFF1FA9
:1058A00010B5044C6068002803D0FAF727FC0020EC
:1058B000606010BDD87AFF1FF3B51F4C06466068C4
:1058C00081B0002824D0002518E060682F01381826
:1058D0008068002805D0FAF711FC6168002079186B
:1058E000886060683818C068002805D0FAF706FCA0
:1058F000616800207918C8606D1CEDB2B542E4D330
:105900000298002805D06068FAF7F8FB0020606074
:10591000FEBD606832010028FAD00021FAF7ACFB26
:105920000021FF22606803E00B01491CC254C9B288
:10593000B142F9D3FEBD00005C7AFF1F01000448AC
:1059400005D104498978002901D00248801D70479B
:1059500078E2FF1F747AFF1F0148807870470000CB
:10596000747AFF1F014840687047000068E2FF1F1B
:10597000014880687047000068E2FF1F0148C06866
:105980000068704768E2FF1F10B50748C0680168EB
:10599000491C016005480078FF2803D001218903D4
:1059A000FAF79AFB10BD000068E2FF1F747AFF1F30
:1059B00002484068002800D001207047D07AFF1FBD
:1059C00002480068002800D001207047D07AFF1FED
:1059D000FFB581B00F460D9E0A9D039804F0C6F9ED
:1059E000040042D0019800283FD1207910210843BB
:1059F00020710499490702D50221084301E0FD21E5
:105A0000084020710B99284608430C9908433043FD
:105A1000207902D00421084301E0FB2108402071D5
:105A2000002E06D03069102220623146A018FAF705
:105A3000FFFA002D01D0002F05D00B98002814D0BC
:105A4000012F08D011E0606A002801D0FAF756FB58
:105A50001C21284606E0606A002801D0FAF74EFBB8
:105A60001C210B98FAF750FB60620398224C8700C8
:105A7000E05900283ED0002D0FD0006A002806D142
:105A80001C20FAF735FBE1590028086205D0E059DF
:105A90001C22006A2946FAF7CBFA0C98002810D08D
:105AA000E059406A002806D11620FAF721FBE15997
:105AB0000028486205D0E0591622406A0C99FAF78E
:105AC000B7FA002E10D0E059806A002806D11420C1
