:020000041102E7
:1000000003B40148019001BDADAE000003B4014846
:10001000019001BD456B010003B40148019001BD91
:100020000189000003B40148019001BDC53F0000F3
:1000300003B40148019001BDE94C010003B401483B
:10004000019001BDC95C010003B40148019001BDEC
:10005000CD4C010003B40148019001BD090E000020
:1000600003B40148019001BDF54E010003B40148FD
:10007000019001BD434D010003B40148019001BD51
:10008000154D010003B40148019001BD1D4B010055
:1000900003B40148019001BD6189000003B4014827
:1000A000019001BD4551010003B40148019001BD1B
:1000B0001147010003B40148019001BD252600004D
:1000C00003B40148019001BD8B52010003B4014803
:1000D000019001BDB352010003B40148019001BD7C
:1000E0000D52010003B40148019001BDC94A01004D
:1000F00003B40148019001BD3D4B010003B4014828
:10010000019001BD014C010003B40148019001BD03
:10011000F94C010003B40148019001BD35220000F3
:1001200003B40148019001BD691F000003B40148F8
:10013000019001BD4D1A000003B40148019001BDBA
:100140005D17000003B40148019001BD5952010040
:1001500003B40148019001BD5125000003B40148DA
:10016000019001BD594F010003B40148019001BD48
:100170008D12000003B40148019001BD4D1F000025
:1001800003B40148019001BD5522000003B40148A9
:10019000019001BDDD52010003B40148019001BD91
:1001A0001D4D010003B40148019001BD810E000006
:1001B00003B40148019001BD017F000003B4014870
:1001C000019001BDE117000003B40148019001BD99
:1001D0007918000003B40148019001BDD94901001C
:1001E00003B40148019001BDE928000003B40148AF
:1001F000019001BD5549010003B40148019001BDC2
:10020000C926000003B40148019001BDE1220000AD
:1002100003B40148019001BD3555000003B4014805
:10022000019001BD1DBC000003B40148019001BD57
:100230006DBC000003B40148019001BDC51D000064
:1002400003B40148019001BD3550FF1F03B40148BC
:10025000019001BD8552010003B40148019001BD28
:10026000ED4A010003B40148019001BDA54F010012
:1002700003B40148019001BDC90E000003B4014858
:10028000019001BDB30E000003B40148019001BD0F
:100290005D4BFF1F03B40148019001BD6134FF1F96
:1002A00003B40148019001BDB14AFF1F03B40148E6
:1002B000019001BDB94BFF1F03B40148019001BD7E
:1002C000C9A9000003B40148019001BDFD60FF1FF2
:1002D00003B40148019001BD9960FF1F03B40148B8
:1002E000019001BD894FFF1F03B40148019001BD7A
:1002F000DD4FFF1F03B40148019001BDB30E0000A4
:1003000003B40148019001BD350E000003B401485B
:10031000019001BDFD34FF1F03B40148019001BDF0
:100320003519000003B40148019001BDBD1800005B
:1003300003B40148019001BD311A000003B4014823
:10034000019001BDA946010003B40148019001BD1F
:100350009928000003B40148019001BDA928FF1F9E
:1003600003B40148019001BDC521000003B4014858
:10037000019001BD291C000003B40148019001BD9A
:100380001922000003B40148019001BD851F00003F
:1003900003B40148019001BD5147010003B4014875
:1003A000019001BDA150FF1F03B40148019001BDA0
:1003B000214FFF1F03B40148019001BD394FFF1FBA
:1003C00003B40148019001BDF54EFF1F03B401487D
:1003D000019001BDEDA5000003B40148019001BDED
:1003E000594FFF1F03B40148019001BD8551FF1F04
:1003F00003B40148019001BD7D51FF1F03B40148C2
:10040000019001BDB54C010003B40148019001BD4C
:100410004550000003B40148019001BD75A90000DA
:1004200003B40148019001BD9DA9000003B4014837
:10043000019001BDA326FF1F03B40148019001BD37
:100440007D26FF1F03B40148019001BDB14E00009D
:1004500003B40148019001BD3D18000003B40148F8
:10046000019001BD2146010003B40148019001BD86
:100470002527FF1F03B40148019001BDB13E0000D4
:1004800003B40148019001BD2124000003B40148D8
:10049000019001BD055E000003B40148019001BD5B
:1004A000B11D000003B40148019001BDF525000015
:1004B00003B40148019001BDE548000003B40148C0
:1004C000019001BD2951010003B40148019001BD13
:1004D000D91B000003B40148019001BDC528FF1FCE
:1004E00003B40148019001BDED28FF1F03B401488A
:1004F000019001BDD1A50000F8B5C849C64A002049
:1005000005464A608300401CD550FF28FADD486844
:10051000C34A014680318A606E22C262C14A1278A3
:10052000002A01D07F22C2620A22BF4B02651A78DC
:100530008263BE4AC2611A781024022A06D01A7851
:10054000032A08D01A78042A05D005E0B84AC26107
:100550000422026200E00462B64A4261192292015A
:1005600082613722CA6036272D26C7630822466477
:1005700002644F6032270F603B27CF634527CF646B
:100580000D4639274035C4C532270F6502270F664F
:1005900042270835C4C51E274F66CE668A660526E3
:1005A0004E6742260E675A260E614A613C228A61D6
:1005B000AF22D2000260A04A02631A78022A06D053
:1005C0001A78032A05D01A78042A04D005E01522E7
:1005D00002E00E2200E00C224260FF222D328260F7
:1005E000C260FF22F5320261944A82647D22D20009
:1005F000934ECA67C6644262924A82627322C2659F
:10060000062242658265C21D0826F932022716605D
:1006100047664B27FF0087660927C7668A4F07672B
:10062000466700258567BD10884F854EC5673E60CB
:100630001E78022E06D01E78032E07D01B78042BBE
:1006400008D00AE01A23CB61212301E01323CC61F7
:100650000B6202E00E230C62CB61784B8B627D2330
:10066000DB008B6764234B620523CB6202230B63A1
:10067000C8234B6300238B63382151607449116494
:10068000744991614B21C900D161734911627D2187
:1006900009015162D3661E21136791666A4991650B
:1006A000156655645567D1656149FF30963191678C
:1006B0006A49D1676A4A8130026082604160FF21E5
:1006C000F531C160016168486649534A81606749F4
:1006D000803A11616449664A80318A62654ACA6219
:1006E000654A8261654AC262654A02636548C861BB
:1006F0005D496548403188616549644888605A4869
:1007000064498038416064494163FFF779FC012006
:10071000FFF77CFCF8BDF3B50746604881B0C169BE
:100720005F4A1140FF310931C161002613E0002505
:100730002C461120FFF770FC5848406A8007800F54
:10074000610088402843641CE4B20546102CF0D3B5
:1007500001C7761CF6B202988642E8D3FEBD10B5FA
:100760002E4C607800280AD104214E48FFF7D3FFB1
:100770004C4804211030FFF7CEFF0120607010BDFF
:10078000F0B500248BB00D460646102902D9012091
:100790000BB0F0BDFFF7E3FF424900200A5C401CAC
:1007A0001419C0B21028F9D3002C03D0102D03D98E
:1007B0000B20EDE70E20EBE73B483A4C00230068A6
:1007C00002A91034E25CC75C7A40CA545B1CDBB2FD
:1007D000102BF7D306AA3348FFF724FC102D00D9BD
:1007E00010252A4606A93046FFF722FCFFF726FC13
:1007F000216840182060FFF721FC616840186060A4
:10080000FFF71CFCA1684018A060FFF717FCE16827
:100810004018E0600020BBE70004FF1FE87AFF1FDC
:1008200030E9FF1F9275FF1F4A0AFF1F220B0000CD
:100830004605000080C3C9019A02000050C30000B1
:10084000F81100006A180000204E0000F009FF1F98
:100850000040001168100000C409000040420F0071
:1008600010270000B15EFF1F0001FF1FDD2DFF1FDD
:10087000556CFF1F356FFF1F452AFF1FD92BFF1F28
:10088000612AFF1F9D73FF1FFD26FF1F6131FF1FA0
:100890000002FF1FD15BFF1F055DFF1F40F00040FE
:1008A00000FEFEFF4CE4FF1F087BFF1F0A7802706A
:1008B0008A7842704A88120A82700979C1700420CD
:1008C00070470A7802700988090A4170022070474F
:1008D0000A7802700988090A417002207047097875
:1008E00001700120704770B50C46097801702188AD
:1008F000C51C090A4170A17881706088611D000AD9
:1009000028706D1C22792846FFF792FB207921463A
:10091000401922890A31FFF78BFB20792189401881
:10092000001D80B270BD10B500220EE093005B1870
:100930009C7804705C88521C240A44701C79847072
:100940009B88D2B21B0AC370001D0B789342EDD86E
:100950001806800D10BD0A7802700A88120A4270CB
:100960008A7882704988090AC17004207047F8B5F6
:100970000D4606464978012031700024761C16E0A9
:100980006978012917D01221614349198A78327098
:100990004A88871C120A7270B61C10223046091D44
:1009A000FFF746FB1037B8B21036641CE4B2297862
:1009B000A142E5D8F8BDA10049198A7832704A8869
:1009C000871C120A7270B61C02223046091DFFF7FE
:1009D0002FFBBF1CB8B2B61CE7E710B50C46097870
:1009E00001702188090A41706288211D801CFFF76F
:1009F0001FFB6088801C80B210BD10B50C460978C2
:100A000001702188090A4170A17881706188090A02
:100A1000C170A288A11D001DFFF70AFBA088001D60
:100A200080B210BD10B50C46097801702188090A02
:100A30004170A17881706188090AC170A288A11DE6
:100A4000001DFFF7F5FAA088001D80B210BD0A78DE
:100A500002700A88120A42708A7882704988090AEC
:100A6000C1700420704710B50C460A88891CFFF736
:100A7000DFFA208810BD10B50B788A7802705343D6
:100A8000DCB22246401C091DFFF7D2FA601C10BDE3
:100A900010B50C46097801702188090A4170A178C7
:100AA00081706188090AC1702279611D001DFFF7FC
:100AB000BFFA2079001D10BD10B50B788A7802703E
:100AC0005343DCB22246401C091DFFF7B1FA601CFB
:100AD00010BD10B50C460A88891CFFF7A9FA2088BA
:100AE00010BD10B50C460A88891CFFF7A1FA2088B2
:100AF00010BD10B50C46097801702188090A4170B3
:100B00006288211D801CFFF793FA6088801C80B2E8
:100B100010BD7FB515460446022901D0102903D126
:100B2000022B04D0102B02D0002004B070BD9942DB
:100B300002D10A46294607E01029694607D000F08D
:100B40000DF8102269462846FFF77EFAEDE71046B9
:100B500000F004F8102269462046F5E770B50C460F
:100B600005000CD0002C0AD0102206492046FFF7C1
:100B70005FFA2878207368786073012070BD0020C8
:100B800070BD0000E4DC021110B50B4601220249E1
:100B900003F070FA10BD0000AD08021110B50A880C
:100BA000173AE02A05D80B460222034903F062FAFD
:100BB00010BD022010BD0000C308021170B506462A
:100BC00008880C46172812D30B46032209493046E1
:100BD00003F050FA050008D10749208809888842A7
:100BE00000D20146304600F08DFA284670BD022042
:100BF00070BD0000D1080211F079FF1F10B50B463F
:100C00001822024903F036FA10BD0000DF08021175
:100C100010B500231922194603F02CFA10BD00006C
:100C200010B50A79022A01D0022010BD0B46062217
:100C3000014903F01FFA10BDE708021110B50A7848
:100C4000002A05D00B460722024903F013FA10BD13
:100C5000022010BD2709021110B50B4604220249DB
:100C600003F008FA10BD00005709021110B54A78C8
:100C7000012A01D0022A08D10A78002A05D00B46A1
:100C80000522034903F0F6F910BD022010BD000053
:100C90006F09021101494000085A7047EE79FF1FA1
:100CA00010B50B461D22024903F0E4F910BD000007
:100CB000DB09021110B50B461B22024903F0DAF9D9
:100CC00010BD0000DB0902110149172008807047A0
:100CD000EE79FF1F042901D00420704701781170BC
:100CE000837841781B02C9185180C07810710020A8
:100CF00070470098022B01D0042070471178527879
:100D000012028918018000207047022901D00420B6
:100D10007047017840780002081810800020704762
:100D20000098012B01D00420704711780170002039
:100D30007047002901D0042070470020704770B52B
:100D4000049C1E461546062B1BD369782878090299
:100D500040182080E978A8780902401860800222B3
:100D60002271291D601DFFF763F9B61FB2B22281FF
:100D7000F02A06D82046A91D0A30FFF759F90020AD
:100D800070BD042070BD0098042B01D00420704772
:100D9000537811781B02C91801809178D278120219
:100DA000891841800020704710B502981146022B27
:100DB0000FD34C780A782402121902809B1E9AB233
:100DC0004280F42A05D8001D891CFFF731F9002064
:100DD00010BD042010BDF8B584890D460646002CD0
:100DE00026D0B2681778380620D50C2C20D90C3CB8
:100DF000A4B21019009001217088234602F00CFE65
:100E0000002811D0022028707806C00F6870B8063C
:100E1000800EA870641E2004000CA88001D0B06869
:100E2000401CA8600020F8BD0120ECE70020EAE7A4
:100E30000120F8BD10B502981146042B14D34C784C
:100E40000A78240212190280CC788A7824021219B6
:100E500042801B1F9AB28280F22A05D8801D091D8C
:100E6000FFF7E6F8002010BD042010BD0098042B09
:100E700001D004207047537811781B02C9180180F3
:100E80009178D2781202891841800020704770B59D
:100E90000546144603290CD3491ECEB22978618039
:100EA000F52E06D8002904D03046FFF7D3F80029E4
:100EB00001D0042070BD20703246691C201DFFF750
:100EC000B7F8002070BD10B502981146062B03D06C
:100ED000142B03D0042010BD022200E01022027166
:100EE0004B780A781B02D2180280CB788A781B02D2
:100EF000D21842800279401D091DFFF799F80020A1
:100F000010BD70B50546144603290CD3491ECEB258
:100F100029786180F52E06D8002904D03046FFF7E5
:100F200099F8002901D0042070BD20703246691C58
:100F3000201DFFF77DF8002070BD000030B5039C38
:100F4000D80718D1D805010E022914D30B48808880
:100F5000814210D8F6200155002008E0557813781A
:100F60002D025B194500401C6353C0B2921C88429D
:100F7000F4D3002030BD042030BD0000E879FF1F0D
:100F80000098022B01D00420704711785278120289
:100F9000891801800020704770B5144602460498F5
:100FA000022B18D3667825783602AD1905800546E0
:100FB000E0352A766976002A0BD0E8219B1E9AB28A
:100FC00042808A4207D8A11C001DFFF731F800209B
:100FD00070BDF421F2E7042070BD002901D0042087
:100FE000704700207047000010B50B4616220249DA
:100FF00003F040F810BD0000FB09021110B50B46CC
:101000001722024903F036F810BD0000250A02112C
:1010100010B50B460C22024903F02CF810BD00005D
:101020004F0A021110B50B460D22024903F022F8B7
:1010300010BD0000670A021110B50A79102A03D00A
:10104000022A01D0022010BD0B461022014903F0F4
:1010500011F810BD910A021110B50A78002A05D0C6
:101060000B461122024903F005F810BD022010BD05
:10107000770A021110B50A79102A03D0022A01D08A
:10108000022010BD0B460822014902F0F3FF10BDFB
:10109000910A021110B50A78002A05D00B460922E0
:1010A000024902F0E7FF10BD022010BDB90A02118B
:1010B00010B50B460F22024902F0DCFF10BD000004
:1010C000D30A021110B50B460B22024902F0D2FFDF
:1010D00010BD0000E30A0211F72800D9F720084AE2
:1010E00001461080401EC3179B0F18188003000C88
:1010F0005080491EC80F4018C003000C90807047F4
:10110000E879FF1F044A1288914203D8024A40003E
:10111000921D115270470000E879FF1F70B50B4611
:10112000E0331C7E1222012C09D10A4D4200AA5A3A
:101130004C880F3A944201DD022070BD92225B7E02
:10114000012B01D140231A430B46034902F092FFC1
:1011500070BD0000EE79FF1FF30A021110B50023E5
:101160001322194602F086FF10BD000001490870E5
:10117000704700003A75FF1F10B50C46090408D5EA
:10118000FEF76EFF002801D0FEF770FF0120C003BC
:1011900061E0E00703D003F0F5FC01205BE0A0076D
:1011A00003D503F02BFD022055E0600701D5042094
:1011B00051E0200701D508204DE0E0060BD5284876
:1011C0000078002805D027480078002801D100F0D9
:1011D0000DFF10203FE0A00601D520203BE0600677
:1011E00006D521480068002800D08047402032E022
:1011F000200606D51D480068002800D080478020C2
:1012000029E0E00507D51A480068002800D080478B
:10121000FF2001301FE0A00508D51648006800280F
:1012200000D0804701212046490209E0600509D528
:1012300011480068002800D080470121204689021B
:10124000484010BD200508D50C480068002800D093
:1012500080470120C002604010BD002010BD00008A
:101260008E75FF1F8575FF1F1C76FF1F2076FF1FE1
:101270002476FF1F2876FF1F2C76FF1F3076FF1F76
:1012800010B50249087004F0E9F910BDB476FF1FEB
:10129000FFB58DB0054600200A900B901E460AAAA5
:1012A000284600F0F9F904460A2855D204F0B5F9A9
:1012B0000546082E19D00020009033462A462146C4
:1012C0000F9804F091F81422002101A8FEF7D4FE33
:1012D00020460621484307462430C0B201AA102107
:1012E00009F07EFA002802D014E00120E4E7102281
:1012F000FF2101A8FEF7C6FE00280BD12537F8B262
:1013000005AA042109F06CFAE907C90F01AA0F9890
:1013100001F04AFA7034E0B206AA102109F060FA2E
:10132000002811D106A804F08AF9002406AFA00015
:10133000C0190188002903D082780F9801F04CFD74
:10134000641CE4B2042CF2D3A80707D51648017830
:101350000F9801F02FFD01E0082E02D0042E17D0C7
:101360001FE011480F99401C405C022819D100224F
:1013700029460F9803F0AEFF0B48C069002810D033
:101380004368002B0DD0002211460F98984708E0C3
:1013900005480F99401C405C022802D1084604F021
:1013A00095F9002011B0F0BDB476FF1F70B50C4662
:1013B000080428D515480078FEF752FE05001ED017
:1013C0000178B02908D0B1290ED0D02914D100F06D
:1013D0001FF8002810D112E001791E290CD168886D
:1013E000002100F0B5F907E00179002904D1028954
:1013F000C188688800F0A0FA2846FEF737FE012071
:10140000C003604070BD002070BD0000B476FF1FB7
:10141000F0B504468078954F801F85B07D1E00266C
:101420000300FEF735FE0AFE1111891B06CE115E80
:101430009A11E869002808D00668002E05D0637B61
:10144000227B6189E01CB0470EE16189A86901F047
:1014500091F80028F8D060890121D9E0607800284F
:101460002DD1A079C0072AD0A088804980001F31E3
:101470000858002823D10E2200216846FEF7FCFD03
:101480006169002903D006226846103107E0A08870
:1014900008F0E8FD0028D7D0811D06226846FEF737
:1014A000C7FD69468889A1794907C90F084369467C
:1014B00088812146684603F04FFE002809D0E8697C
:1014C0000028C1D04368002BBED06278A0880121DB
:1014D00070E0A0882246694604F0CAF9002005B0F1
:1014E000F0BD6078062817D1A08808F0BBFD060083
:1014F00012D0A87B012804D0022808D003280BD1E1
:1015000014E07179A088002203F0E4FE04E0A188D1
:101510003078052201F07EF9E86900281CD0436884
:10152000002B19D06278A088022143E000221146E6
:101530004F4800F043F9EAE7E0780022211D00F06F
:10154000ABF80A2808D20621484325302246C0B20B
:101550000C32042109F050F986E0687A0028A0884E
:1015600001D0A97A54E0395C002925D008F07AFD31
:101570000646A07AC0070ED0002E75D070790028DC
:1015800009D0A089800506D470796A46B11D00F0A3
:1015900083F8002812D022467179A088083203F01F
:1015A00099FEE86900285FD04368002B5CD00022D8
:1015B000A0881146984757E0052129E0A08803211B
:1015C00026E0A58801962846029608F04BFD040007
:1015D0004AD0785D022847D0607901AAA11D00F0A9
:1015E0005BF806460A280AD204F017F801210246E1
:1015F000009108233146284603F0F6FE34E0785D7A
:10160000002803D0012806D02EE00AE00521284654
:1016100001F0F0F828E061790022284603F05AFE34
:1016200022E000F087FF00281ED1287C012805D089
:10163000104D0024285D012809D00CE003F040FF84
:101640002E740A2200210B48FEF716FD07E0204603
:1016500003F042FF2E55641CE4B20A2CEAD350205A
:1016600009F0BCF803F0FAFF012038E7B576FF1F58
:101670000904000038B2FF1F10B5064CE061217864
:10168000FF2905D0262001F07FF8207801F042FBE9
:1016900010BD0000B476FF1FF0B50A2485B01646D1
:1016A0000F46002807D0012805D00A25022810D0AF
:1016B000032847D11FE0084603F06EFF04460A28BE
:1016C00040D2002E3ED0062239463046FEF7B0FC0E
:1016D00038E01E4F002400910E206043C0190622FE
:1016E000801D0099FEF7B0FC002823D1641CE4B2F1
:1016F0000A2CF1D31CE00024204606214843233065
:10170000C0B26A46102109F06BF800280CD11022F3
:10171000FF216846FEF7B6FC002805D13946684629
:1017200000F0E6FF002805D0641CE4B20A2CE3D3E5
:101730002C4607E00A2C05D2002E03D03146204665
:1017400003F050FF204605B0F0BD0000ACB1FF1F14
:1017500070B50E4617491525884212D1002432462D
:101760000221204603F080FE002800D00025641CE2
:10177000E4B20A2CF3D3002E1AD00F4808F0D2FCA2
:1017800016E008F06FFC040011D060790022A11D62
:10179000FFF782FF0A2804D23246022103F064FEDA
:1017A0000025002E04D0204603F086FF00E014251B
:1017B000284670BDFFFF0000B9560211FEB5154660
:1017C00001229202821A00240127584E1300FEF7CC
:1017D0005FFC110A151A21282F373E434B767E8570
:1017E0008DA29956A200012970D1297802296DD8BD
:1017F0004E480122401CFEF73FFC94E0022965D1CF
:10180000288870828FE0012960D1287801285DD86E
:10181000B07088E001297CD12878042879D8F0704C
:1018200081E0012975D12878012872D830717AE0D9
:1018300010296ED1102229463D48FEF7F9FB72E0CF
:10184000012966D12878012863D870716BE00129DD
:101850005FD12878F07266E004295AD135492868AA
:10186000884256D8B0615EE0002952D100F062FE95
:10187000002801D0377456E003F022FE19E0072952
:1018800047D10622691C6846FEF708FC287800222A
:101890006946FFF701FF05460A280ED200F04AFE0E
:1018A000002803D022489C3047553CE0284603F0EE
:1018B00013FE502008F092FF21E0022433E00129BA
:1018C00027D12878012824D870722CE021E0012942
:1018D0001FD1287809281CD8B07224E0012918D11A
:1018E0002878C11F092914D830731CE0012910D1B0
:1018F000F07B2978F173002815D1012913D103F069
:10190000ADFE10E0012904D12878032801D8B07376
:1019100009E0182407E02728CFD20229CDD1298851
:1019200000F032FF04462046FEBD0000B476FF1FE3
:101930009CB1FF1F3F420F00F8B50F461349152514
:10194000164688420DD1002432463946204603F01F
:10195000DFFE002800D00025641CE4B20A2CF3D37B
:1019600012E008F07FFB00280DD04379811D002292
:101970001846FFF791FE0A2806D23246394603F090
:10198000C7FE002500E014252846F8BDFFFF000033
:1019900010B5044604F052F8002817D00079FEF77D
:1019A00083FB0B48002106224A4312185288A242A8
:1019B00006D100220623D24359430818428003E08F
:1019C000491CC9B20429EED3002010BD122010BD5D
:1019D0002884FF1F3EB5084C65786C462570607002
:1019E000A170E2700622194601A8FEF721FB6846A5
:1019F00000F0A6FC3EBD00002875FF1F70B5094928
:101A0000094C48700021094AFF2506234B439B18C7
:101A1000491C5C80C9B21D710429F6D300F062FE36
:101A200070BD00002875FF1FFFFF00002884FF1F06
:101A300070B50C4608040ED50B484078FEF710FB35
:101A4000050004D003F0BAFF2846FEF70FFB012083
:101A5000C003604070BD600403D50120800348408E
:101A600070BD002070BD00002875FF1F10B5134623
:101A7000012200249202821A09D0012A0DD01148B5
:101A8000022A13D0042A16D00224204610BD1029A1
:101A900013D1102219460C4805E010290DD10A482F
:101AA000102219461030FEF7C3FAEEE7042904D1DC
:101AB00019688160E9E7012901D01824E5E7197860
:101AC0000170E2E72875FF1F4084FF1F1CB5084C1A
:101AD000002800D06060064906480831019103469D
:101AE0000090103B22780821607800F0B1FB1CBD0B
:101AF0002875FF1F5084FF1F38B5054B5C786B4677
:101B00001C7058709970DA70684600F053FB38BD4D
:101B10002875FF1F014610B502481322407800F0D7
:101B200079FE10BD2875FF1F70B50C4601460320D5
:101B300000020A1A002534481300FEF7A9FA1D1006
:101B400012151C1F2326282C303234383A3C3E40D4
:101B5000424446484A4E50525A5456585A00C07948
:101B600011E01022294902E02849102210312046B4
:101B7000FEF75EFA45E0C06A206042E02249062294
:101B80003C31F4E7007820703BE0808936E01E4964
:101B900042784231EBE71D4982781F39E7E7007A46
:101BA000F1E7407AEFE7184906223031DFE7807A23
:101BB000E9E7C07AE7E7C08920E0808A1EE0C078C4
:101BC0001CE0C08A1AE0008B18E0408B16E0808B86
:101BD00014E00D4906223631C9E7C08B0EE0008CB7
:101BE0000CE0408C0AE08079CDE7008A06E0408A6C
:101BF00004E0272904D2084600F020FC208000E001
:101C00000225284670BD00004478FF1FFDB6FF1F67
:101C100070B50E4C00256071A571691EE18100F060
:101C200061FD0420E071102200210948FEF724FA2A
:101C30000748102200211030FEF71EFAE5622572D7
:101C400065720720A072E57270BD00004478FF1F26
:101C5000FDB6FF1FFEB53B4D0C4608040CD5687958
:101C6000FEF7FEF9050004D004F0D0FD2846FEF78B
:101C7000FDF90120C00360E0600403D5012080036A
:101C80004840FEBD2F48E1070126807900292AD06F
:101C90002978002920D0052821D0297A68460170AA
:101CA000697A4170274906223031801CFEF7C0F95D
:101CB000A97A68460172E97A41726946687900F04A
:101CC000D9FB002808D00720A871696A002903D031
:101CD0000968002900D0884720467040FEBD0320D7
:101CE00069460870E4E7A1070DD5052809D1E88900
:101CF000FEF7E0F9AA8A002A03D002216879FEF7EC
:101D0000DFF9022019E0600704D5002004F0D6FDB9
:101D1000042012E0200712D52879012802D00228D9
:101D20000AD107E00096AB8B6A8B298BE88A00F01A
:101D30000BF801E000F05AF908206040FEBD0020D9
:101D4000FEBD00004478FF1FF8B5134C069EA57930
:101D5000052D01D01420F8BD104F851FBD4219D2AA
:101D6000062917D3BD1DA94214D2FF27F537BA4261
:101D700010D20A2B0ED3AB420CD2E08221836283B5
:101D8000A383304604F09AFD04216079FEF79EF9A2
:101D90000020F8BD1820F8BD4478FF1F7A0C000021
:101DA000F7B50D4680490098164642187F4F00242B
:101DB0007879B9791300FEF76BF9190E141BE92035
:101DC00040455970777E888FE996A2A9B4BFC8E9CB
:101DD000E9E9E9D3E900102D76D1102231467448A3
:101DE0006FE0102D70D1724810223146103068E03B
:101DF000042D69D13068F862CEE0012D64D13B78C2
:101E000032783A70002B0AD0002A07D1022903D079
:101E1000062901D0042901D100F068FABCE0002AAB
:101E20000AD0012905D0032903D0052901D00429AE
:101E300002D10121FEF750F9AEE0022D44D13088E5
:101E4000B881A9E01F2D3FD858481F2200214230F9
:101E5000FEF712F955482A4631464230FEF7E8F8B7
:101E6000524B7D7042332A46012112E01F2D7CD84F
:101E70004F481F2200211F38FEF7FEF84C482A4623
:101E800031461F38FEF7D4F8494B2A461F3BBD7038
:101E90000021787900F0FEFC83E0012D65D13078D7
:101EA000042862D8387277E0012D5ED1307803289B
:101EB0005BD8787270E0062D57D13C480622314637
:101EC0003030FEF7B5F867E04FE0012D4DD13078A6
:101ED00007284AD8B8725FE0012D46D13078032830
:101EE00043D8F87258E0022D3FD13288BA82002AD6
:101EF00052D0052950D10221FEF7E2F84CE0012D25
:101F000033D13078012830D8F87045E03088022D80
:101F10002BD1062829D31921C901884225D8F88256
:101F20003AE03088022D20D106281ED31921C9019C
:101F300088421AD838832FE03088022D15D1FF212E
:101F4000F531884211D2788326E03088022D0CD1F9
:101F50000A280AD31921C901884206D8B8831BE090
:101F60003178012D01D1012901D0182414E0082174
:101F7000FEF7B8F8002801D016240DE0002004F088
:101F80009DFC04217879FEF7A1F805E00098272848
:101F900001D2022D02D002242046FEBD318800F07D
:101FA000F3FB0446F8E70000FFFCFFFF4478FF1F47
:101FB000FDB6FF1F1CB50B4CA179002901D01120E3
:101FC0001CBD002800D06062064907482C3103463A
:101FD00001910090103B0022E179607900F038F91E
:101FE00000201CBD4478FF1F0DB7FF1F10B5064829
:101FF0008179052901D0122010BDC18913224079B1
:1020000000F008FC10BD00004478FF1FF8B504463E
:102010002C480F460078022805D0012803D0082854
:1020200003D1002F01D01220F8BD002C07D020884A
:10203000254D81006958002903D01120F8BD0220E8
:10204000F8BD08F00FF8060036D02C20FEF750F847
:10205000218889006850002830D02C220021FEF70A
:102060000BF820881C228100695848802088211D97
:1020700080002858001DFDF7DBFF21880220890021
:1020800069580870228890002B5870791B1D002811
:1020900016D000200D49097801F06AFC0546002F92
:1020A00003D03946304609F0D3FF002D02D02088F6
:1020B00003F052FD2846F8BD1420F8BD1320F8BDEA
:1020C0000120E7E70D7AFF1F787AFF1F9D7AFF1F37
:1020D000FFB5204D81B028781E461746022823D030
:1020E000012821D0002F22D0019807F0BBFF040067
:1020F0001FD0606A002801D0FEF700F81C21384686
:10210000FEF702F86062010015D02878000714D5A8
:10211000002E12D0887E00900B4612330A8A019856
:102120000AF066FA014609E0122005B0F0BD02206F
:10213000FBE71420F9E71320F7E7002120790422B8
:1021400010432071029A002A02D00222104320710B
:102150000846EAE70D7AFF1F10B50548007800072A
:1021600001D5044800E0002004F050FA10BD000042
:102170000D7AFF1F047AFF1F70B50C4C0546012134
:10218000207803F015FD0A480A210078084207D09C
:1021900020462570083004F033FA02F0B9FF70BD14
:1021A0000020207004F02CFA002070BDF479FF1F8D
:1021B0000D7AFF1F38B5234D04462868002801D04A
:1021C000112038BD20480A210078084201D1122090
:1021D00038BD0420FDF78CFF286000282FD0042292
:1021E0002146FDF725FF00F0A5F9002805D00C20B9
:1021F00000F024F905460D2007E06078022812D08F
:10220000102000F01BF90546112000F017F90246D6
:10221000E078002800D0012000900C4800780028C9
:1022200007D0012306E0122000F008F9054613202C
:10223000EBE70023A0782946FDF76CFF38BD13209B
:1022400038BD0000687AFF1F0D7AFF1F0E7AFF1F4E
:10225000FFB51E4681B017460D4602240B00FDF760
:1022600017FF0D210B0B0B0B210B210B0B21210851
:1022700021000EA001F05EFF2946019800F05EF9F2
:1022800004000FD130460B9A0A9900F035FA38460F
:10229000FFF772FFFFF760FF01F090FA00F08EF990
:1022A00001F02AFB204605B0F0BD00004741505F19
:1022B000446576696365496E69743A204741505FA9
:1022C00050524F46494C455F43454E5452414C2075
:1022D0007C204741505F50524F46494C455F504526
:1022E000524950484552414C200A000070B5104CEC
:1022F0002168002904D00978814203D0032070BDF1
:10230000122070BD0B4D02212878FDF7DFFE0A4830
:102310000026468004212878FDF7D8FE074806806D
:102320002168032048700020FDF7FAFE70BD000010
:102330006C7AFF1F9D7AFF1F807AFF1F107AFF1FA4
:10234000F0B505463A4889B00078000702D412205B
:1023500009B0F0BD03F0B0FC002801D01020F7E771
:1023600000F0E8F8002801D01520F1E7314C206892
:10237000002801D01120EBE70A20FDF7B9FE20600C
:10238000002851D00A222946FDF752FE20684078E5
:10239000002805D00E2000F051F808900F2004E02E
:1023A0000C2000F04BF808900D2000F047F805468F
:1023B00021480078002835D001261C2000F03EF886
:1023C00004901B2000F03AF80390192000F036F832
:1023D00002901A2000F032F80746162000F02EF87E
:1023E0000190152000F02AF800902168C878091D96
:1023F00002F04AFE034602A807C8049705AF07C7C4
:102400002268019900980391141D0290019600948E
:10241000927829460898FDF789FE040005D003F05C
:10242000BBFB02E00026C8E71324204690E700002B
:102430000D7AFF1F747AFF1F0E7AFF1F272803D221
:1024400002494000085A704701487047187AFF1F38
:10245000FFFF000010B5064C607007F033FE607897
:10246000FDF76AFE0521607801F0C8F810BD000094
:102470009C7AFF1F70B5284E054630680C46002830
:1024800001D0112070BD254801780520014216D0E9
:1024900023488068002805D00078002802D0C807AB
:1024A00006D101E0102070BD00F044F8002808D0EB
:1024B0002078032805D0022803D0002801D012205C
:1024C00070BD0C20FDF714FE3060002820D0057090
:1024D000002141700A222146801CFDF7A9FD04F06D
:1024E00099FB040002D003F02BFB12E00D480078AA
:1024F00003280ED11D20FFF7A1FF0B4900280880FB
:1025000007D00B48094A04210078FDF71BFE00E0C4
:102510001324204670BD00006C7AFF1F0D7AFF1F48
:10252000807AFF1F0E7AFF1F107AFF1F60EA0000FB
:102530009D7AFF1F10B507F0E3FD10BD70B50C4686
:1025400005461C2200210948FDF796FD0848057044
:102550004470FDF7FDFD0549002803D000200870F8
:10256000122070BD01220A7070BD00009CE1FF1FA7
:102570000C7AFF1F7FB504460D46084607F072FD32
:10258000002805D00C48844204D9022004B070BD54
:102590001220FBE7102200216846FDF76DFD68461A
:1025A0000470210A4170210C8170210EC1702946EE
:1025B00001F014F9EAE700003F420F0070B50F4C3C
:1025C0000025A068002802D0FDF798FDA560E0680E
:1025D000002802D0FDF792FDE5600948052100784A
:1025E000084206D00548103004F016F802F066FDE7
:1025F00070BD002004F010F8002070BD807AFF1F2D
:102600000D7AFF1FFEB5344D0C46080419D56878C5
:10261000FDF726FD0121C9034C40064600280ED0D7
:1026200003F0DEFE002807D12878FF2804D03146C9
:10263000FDF794FD002802D03046FDF717FD204637
:10264000FEBDE007012700280AD0A868002804D0B2
:102650004168002901D00020884720467840FEBD0F
:10266000A00709D56868002804D04168002901D076
:102670000120884702202AE060072AD5174E3088BB
:1026800000281FD0401E0004000C30801ED103F033
:102690000BFB002809D0124807706868002804D096
:1026A0004168002901D00120884703F0D7FA694624
:1026B00001F002F8684603F07DFE1D20FFF7BEFE24
:1026C000308003E004216878FDF700FD04206040BD
:1026D000FEBD0020FEBD00009C7AFF1F107AFF1F88
:1026E0000F7AFF1F01490870704700009C7AFF1F96
:1026F00010B501F0DBF810BD70B50E4C0B46261D71
:1027000007C60546102200211846FDF7BBFC01282C
:1027100003D11021A06809F035FA102200212846C3
:10272000FDF7B0FC012803D11021606809F02AFAF6
:1027300070BD00009CE1FF1F38B505460F480C46F0
:102740000078400701D4122038BD284607F08AFCE3
:10275000002811D00A48A9004058002801D0817DE6
:1027600000E02146684609F099FF064B6A460221BF
:10277000284609F0F9FE38BD142038BD0D7AFF1F38
:10278000787AFF1FA9CB0211272807D2044A914269
:1027900004D0044A400011520020704702207047C4
:1027A000FFFF0000187AFF1F70B50E46104915464E
:1027B0000978022916D0012914D0002D14D007F071
:1027C00051FC040012D0002E03D0207902210843CE
:1027D000207110222946A018FDF72AFC28692062E2
:1027E000002070BD122070BD022070BD142070BD8D
:1027F0000D7AFF1F38B50C46054607F033FC00285C
:1028000006D0684604706946284609F09BFE38BD2C
:10281000142038BDF8B50D4617461D4906461B4A1B
:102820001224C868954208D100282DD00268002AD9
:102830002AD029463046904723E0144A521C95423C
:1028400013D1002807D00268002A04D02946304658
:102850009047040005D03946304601F06CFC040076
:1028600012D10B48067047700EE0284607F0FAFBBD
:10287000002809D00078B04205D139462846FDF736
:1028800073FC044600E003242046F8BDFEFF000070
:10289000707AFF1FF8B50E460146194815460078B4
:1028A00005221F46104028D0304326D01548012E5F
:1028B0001BD0C468002C20D01F2D18D8002D01D0AB
:1028C000002F14D001701F220021601CFDF7D4FBE3
:1028D0002A463946601CFDF7ABFB28462570002EC2
:1028E00007D0611CFDF746FCF8BD8468E2E70220D2
:1028F000F8BD611CFDF744FCF8BD1220F8BD0000D6
:102900000D7AFF1F807AFF1F014610B50020C9070E
:1029100004D0034A0421034800F002FA10BD00006D
:102920006CDB02118077FF1F10B5002309E01C014A
:102930002418E468944202D11901081810BD5B1CE8
:102940009BB28B42F3D3002010BD000070B50F4D39
:102950000F4CA87029461831204600F01DF80021C0
:1029600028460B461030CA0084521218491C09062A
:102970005360090EF7D0012005F01CFCA87800F088
:1029800041FC044807F0E4FB70BD00006077FF1FC6
:10299000FFFF0000ED79021170B50A4C0025A0423E
:1029A00009D1002082008C525218401CC0B2957090
:1029B0000228F7D370BD04F0E8FF0028FAD00480A5
:1029C000857070BDFFFF0000F8B50E4607460699FA
:1029D00000240798002902D00B242046F8BD022BC2
:1029E00001D00D24F9E711785278120289188DB2BE
:1029F0002946814301D08024EFE73846F16800F092
:102A000081F9A842E9D02A463846F16800F010FA68
:102A10000400E2D171892A46384600F0AFF9DCE7BC
:102A2000FFB50446C1B01F4600881D4A00254A9BD9
:102A3000904232D0A07800282FD00A461946384656
:102A4000FFF772FF060028D02088164A4100515C2B
:102A50000023C91EC9B203AA023201930291009257
:102A60007A8904AB314600F03BF8002815D1708913
:102A700069468881A078C00705D0208803A9439AB9
:102A800000F088FB0546A078800706D5208803A9BA
:102A90004B9B439A00F0F4FA0543284645B0F0BD3D
:102AA000FFFF0000EE79FF1F70B50C46080412D539
:102AB0000A488078FDF7D4FA050008D02878B028B5
:102AC00002D1284605F07EF82846FDF7CFFA01200E
:102AD000C003604070BD002070BD00006077FF1F24
:102AE000FFB587B0087A0025109E1C460F46C00629
:102AF0000DD5099804F042FF030006D00A2239469A
:102B000007989847050035D101E00E2532E0387866
:102B100002281DD17868292201784078120200022B
:102B2000081880B2811A90427ED009DC7249401A9E
:102B300023D0012821D0022851D0032808D125E034
:102B4000012972D0022971D003296DD004296ED0D9
:102B5000099804F03BFF0028D7D00568002DD4D099
:102B600012991198019100903346224639460798F0
:102B7000A847054628460BB0F0BD1198002873D130
:102B8000F868017831800278416897E01198002850
:102B90006AD101203080F86800210078207078899F
:102BA000401C80B200F0CAF900280FD031880278AA
:102BB0008918891C3180817A61704189090AA17064
:102BC00002784168E01CFDF733FAD3E7308804222D
:102BD000001D30800021601CFDF74EFACAE71198F5
:102BE000002872D1F86804A9008800900420308081
:102BF000009820700098000A6070009800F09EF91C
:102C0000070028D0F86805906846028A03AB3B4964
:102C1000384600F0EBF900280FD13B780221384804
:102C20007A68FDF776FF03E027E031E01DE049E038
:102C3000002802D131486946888105980078022829
:102C40000CD1059802224168201DFDF7F1F930886A
:102C5000801C308002E0694600988881684680893F
:102C6000A070000AE07085E72FE0119800282CD1B1
:102C7000F968079800F046F804E01198002824D17C
:102C8000F8680088022131802070000A607071E7C6
:102C9000F868FDF77BFA1199C0B2814210D88142E1
:102CA00001D1002206E0129A8918814202D31199BB
:102CB000401AC2B23280F96811980918204682E79A
:102CC000072557E71198002801D00B2552E7072167
:102CD000F868318001782170417861708178A17045
:102CE0004188090AE1700179217181796171C08897
:102CF000000AA0713EE7000000280000FFFF00006E
:102D00005ADD021110B504F040FE002800D0807892
:102D100010BD000001490870704700006077FF1F78
:102D20007CB51446050019D068460195018000F075
:102D30006FFA03001DD1002C1BD06D89002D0DD022
:102D40000C20FDF7D5F900280AD000230360858008
:102D5000094A84609168002904D006E0022308E053
:102D6000132306E0906004E011460A68002AFBD1B4
:102D7000086018467CBD00006077FF1FF8B50C4C5A
:102D80000746207815460E46FF280FD00A20FDF78B
:102D900003FA01000AD0B1200870002048700871C1
:102DA0004F80CE800D812078FDF7D8F9F8BD000066
:102DB0006077FF1F70B50C4605460649FFF7A2FF76
:102DC000800704D52146284600F076FA70BD012020
:102DD00070BD00007877FF1F1CB56B461A71120A90
:102DE0005A7100220092022301AA00F001F81CBDD2
:102DF000FFB583B008461F4601A90C9E00F09EF85F
:102E0000050012D06846808804F0E0FD00280AD052
:102E10004468002C07D000963B462946059A039843
:102E2000A04707B0F0BD0E20FBE70120F9E7000046
:102E300070B514460E46054604F0A7FD002806D1DD
:102E40003146054804F0A1FD002803D005808470B8
:102E5000002070BD112070BDFFFF000010B501788B
:102E6000B0290BD14178002908D10179122906D067
:102E70001B2903D14088012100F04AFB10BDFF212E
:102E80000231095C0129F5D010BD10B586B06C4641
:102E90002180628002212171032161712821A171A9
:102EA0000022694604F000FD06B010BDF0B58BB0FD
:102EB00001236A4693819B1ED3810223137400234E
:102EC000537428230D469374064603AF02A904F0F9
:102ED000C7F804000CD139463046FEF7ADF80400BF
:102EE00006D1054B112239460095029805F096FA55
:102EF00020460BB0F0BD00008F0E0211FEB50E464D
:102F00001546074601A904F0ABF804000FD131467D
:102F10003846FDF743FE040009D106493088088091
:102F2000054B032231460095019805F077FA2046BB
:102F3000FEBD0000F079FF1F0B0D0211F0B58C46AD
:102F400010494B6819E09F687C89A04214D39E8881
:102F50003119814210D900220CE011017D186989D4
:102F6000814205D16046002800D004802846F0BD8B
:102F7000521C92B29642F0D81B68002BE3D100207D
:102F8000F0BD0000AC7AFF1FFFB5174881B00A9F63
:102F9000446824E000251EE0A068290146187089D5
:102FA0000199884215D30299884212D804980028C2
:102FB00007D031787068049B039AFDF7AAFD0028BA
:102FC00007D0002F02D0A06840893880304605B075
:102FD000F0BD6D1CADB2A088A842DDD82468002CDD
:102FE000D8D10020F3E70000AC7AFF1FFEB51746EA
:102FF00000256A469580044640891D4A1E46904237
:1030000008D001AA0092401C237880B26268FFF7C2
:10301000BBFF05462378022116486268FDF779FD5B
:10302000002807D12378022113486268FDF771FD5B
:10303000002801D060890EE0237802210F486268E1
:10304000FDF767FD00280DD0002D03D0684680886D
:10305000B84203D0384605F0C1F904E06889401E43
:1030600080B200E06089002E00D030802846FEBD8E
:10307000FFFF000058DD02115ADD02115EDD021172
:10308000FFB581B00F461E4614466946019803F00D
:10309000FDFF050018D1002C06D001221021019857
:1030A00006F0BAFF05000FD139460198FDF7F8FD8B
:1030B000050009D1009CFF2E06D021461E22A31C2C
:1030C000034805F097F9E670284605B0F0BD00000A
:1030D000E182021110B505490870042100F08EFA52
:1030E00000F034F8FDF7F0FD10BD0000BC7AFF1FC2
:1030F000F8B50024124F2546FF26FF200D3060430F
:10310000C019002C19D00021C94301808570467276
:10311000FF21067209310D54FC2200210C30FCF70E
:10312000ABFF641CE4B2022CE7D3064804F0F0FBCA
:10313000054807F00DF80020F8BD0121C943E4E778
:10314000B8E1FF1F256F02116D6E021170B50E4CB4
:1031500000200C4B651CFF228100C91800280ED0EE
:103160000D80401CCA70C0B28A700228F4D3074890
:1031700004F0D4FB064806F0EBFF002070BD0C8085
:10318000EFE70000B47AFF1FFEFF00000D8302117D
:1031900061820211F8B50D4614460646694603F0F1
:1031A00075FF17280CD0002C06D0012210213046C4
:1031B00006F032FF002803D129463046FDF77AFD9C
:1031C000F8BD000070B50C46080411D50948007818
:1031D000FCF746FF050007D00178A02901D104F0D3
:1031E000B1FA2846FCF742FF0120C003604070BDE1
:1031F000002070BDBC7AFF1F0149087070470000B5
:10320000A87AFF1F0149087070470000AC7AFF1FC1
:1032100070B50546008800281DD068680221037833
:1032200042682248FDF775FC002808D16868022131
:10323000037842681E48FDF76CFC00280BD01D4C3B
:103240006088002805D0012229881204101A8142C2
:1032500003D9012070BD022070BD0C20FCF748FF8F
:10326000060001D000200AE0132070BD02016B6847
:1032700061880A329952491C401C618080B22988B9
:103280008142F3D80020306008222946301DFCF727
:10329000CFFE6068002802D1666004E0084601683D
:1032A0000029FBD10660002070BD000058DD02112E
:1032B0005ADD0211AC7AFF1F70B5BEB00D4606464E
:1032C000002402230E4A0F4901200094FFF75CFE00
:1032D000002812D040896A461080042050800120C6
:1032E00010715471FF209071D0712B4600226946F5
:1032F0003046FFF7C5FE3EB070BD0120FBE7000081
:1033000076DD0211FFFF00000649496806E08A6881
:103310005289824201D18888704709680029F6D114
:1033200000207047AC7AFF1F10B51422114201D063
:10333000012202E04A0604D50022102106F06CFEAC
:1033400010BDC80701D0002010BD022010BD10B56F
:1033500014468A0604D50122102106F05DFE10BD38
:10336000882211420ED008220A40102106F054FE95
:1033700000280BD0E034617E0029F0D0217E0129A5
:10338000EDD103E0880701D4032010BD002010BD5B
:1033900010B505F063F810BDF8B50D460646694650
:1033A00003F05EFE172808D02C46E034207E00286B
:1033B00002D1607E012801D00220F8BD29463046A6
:1033C000FDF7ACFEF8BD0000014610B50020C907AE
:1033D00004D0034A07210348FFF7A2FC10BD0000F8
:1033E00058DB0211EC76FF1F70B50D46164600241F
:1033F0001D490300FCF74CFE080512343419342231
:103400002934152D23D8162200211848FCF734FE44
:103410002A4631461548FCF70BFE22E0022D16D154
:1034200011491088103908801BE0082D0FD10E4873
:10343000082231460838FCF7B5FE12E0012D06D10E
:10344000CA6909493078283107E0012D01D01824D4
:1034500007E0CA6B04493078483105F0D2F800E043
:103460000224204670BD0000EC76FF1F42B2FF1F11
:103470000B7803700B8802221B0A43700B88801C98
:10348000012B02D0022B07D011E08A780270498804
:10349000090A417004220AE08A7802704A88120AF6
:1034A00042700A7982708988090AC1700622104622
:1034B00070470A7802700988090A41700220704733
:1034C00008B5044B009313460A46012106F0F4FCAC
:1034D00008BD0000713402111CB503230192009352
:1034E0000A46024B122106F017FD1CBDD9970211A6
:1034F00008B5044B009313460A46132106F0DCFC82
:1035000008BD0000B334021110B5FCF751FE10BD28
:1035100013B504480078012803D101AA6946FCF7D5
:103520004DFE1CBDC87AFF1F70B50F490F4A0870C9
:1035300000210B468C00491CC9B213530429F9D34E
:103540000A4C00211034FF260A460A256A43151941
:103550006B80491CA354C9B26E720329F4D3FCF7E3
:1035600033FE06F07DFC70BDC97AFF1FD0E3FF1F5C
:10357000082A01D0012070474B780A781B02D21824
:103580000280CB788A781B02D21842804B790A7964
:103590001B02D21882808A79C97909025118C18028
:1035A0000020704770B50C46080411D50948007812
:1035B000FCF756FD050007D00178902901D106F0EF
:1035C000B1FB2846FCF752FD0120C003604070BDEE
:1035D000002070BDC97AFF1F70B500280AD1064CC3
:1035E00000252580A581A580A068002802D0FCF7D1
:1035F000F1FDA56070BD00007CE4FF1F072907D026
:10360000052905D0042903D0062901D002207047DE
:10361000044A8B009A181346403B1986203A90744E
:1036200000207047D0E3FF1F70B506001BD10E4C81
:103630000025214640310D744D740D76606D0028D3
:1036400002D0FCF7C7FD65655C20002546433419B0
:10365000E80020184068002801D0FCF7BBFD6D1C75
:10366000EDB20A2DF4D370BD8CE4FF1F70B50A884B
:103670000C460546072A07D0052A05D0042A03D0A0
:10368000062A01D0022070BD012106F08FFD00281E
:1036900004D02146284606F0B5F870BD142070BD50
:1036A00010B5001D80B2FCF79BFD002803D003215C
:1036B000C943FCF79BFD10BD38B50C46050014D07E
:1036C000002C12D00321684608F05CFA694688781D
:1036D00040218006800E08436946887022462846AD
:1036E00009F09CF8050002D006E0022038BD032254
:1036F0006946E01CFCF79CFC284638BDF7B58EB047
:103700000E9815460E4600282DD0002D2BD0301DCA
:10371000C0B20190FCF7ECFC040039D002F0AAFA28
:1037200007463246201D0E99FCF7B8FCF8B2089007
:10373000E0703804000E0B90A0703802000E0A9062
:1037400060703F0E277002F08FFA0146102202A827
:10375000FCF7A4FC06AB214602A8019A08F0B4FFCE
:10376000060003D010E0022011B0F0BD08982870C8
:103770000B9868700A98A870EF70082206A9281D97
:10378000FCF78CFC02F07CFA2046FCF7B7FC00E06A
:1037900013263046E8E7000010B5064C2070FCF711
:1037A0002BFD06212078FFF729FF034806F0D0FC07
:1037B00010BD0000E47AFF1F7DBD021110B5054861
:1037C0000078000701D5044800E0002008F0AAFCBA
:1037D000002010BD0D7AFF1FCC7AFF1FF8B50E46F2
:1037E0001F4C0146B50060590027002807D024224D
:1037F000125C022A05D0032A03D0042A01D0122029
:10380000F8BDC288B24201D00220F8BD10220C30AF
:10381000FCF70EFC60591021353008F0B3F96159FE
:1038200030460B460A46253335320C3109F018F87C
:10383000605902210278002A427807D0032A0BD16E
:103840004170304608F068F9074605E0042A02D0C6
:10385000032A03D000E041703846F8BD0521EFE7A8
:10386000187BFF1F70B50C46080419D50D48007869
:10387000FCF7F6FB05000FD008F0A0FB002808D1EC
:1038800009480078FF2804D02946FCF767FC002887
:1038900002D02846FCF7EAFB0120C003604070BD5F
:1038A000002070BDE47AFF1F9C7AFF1F7CB50C4698
:1038B00005001DD0002C1BD00322E11C6846FCF73C
:1038C000B7FB6946887840218006800E0843694628
:1038D000887001AA284608F0A1FF002807D103221A
:1038E000214601A8FCF7B0FB012803D001207CBDD4
:1038F00002207CBD00207CBD10B505480078400743
:1039000001D5044800E0002008F012FC002010BDA2
:103910000D7AFF1FD87AFF1FF0B587B00C9E1C46AA
:103920000D00074614D068460276110A417610222F
:103930000021FCF7A1FB324629466846FCF778FBDC
:10394000002C08D00822214604A8FCF771FB07E0F0
:10395000022007B0F0BD0822002104A8FCF78CFB70
:103960006B4606AA04A93846FCF74CFCF1E70000B8
:10397000FFB581B00020274C9500009060591E468D
:103980001746002802D0112005B0F0BD002E0BD044
:103990002120FEF753FD317E884205D82220FEF714
:1039A0004DFD317E884201D20220EDE77820FCF700
:1039B0009FFB605100282AD078220021FCF75CFB95
:1039C0006159002048706259019911706259029939
:1039D00091706259FF21D1706159CF8061598E6019
:1039E000615908626159203108710198002803D09B
:1039F000384608F0A7F800906159012048700098F7
:103A0000002802D0384608F059F80098BCE7132087
:103A1000BAE70000187BFF1FFFB58DB00F98169C0A
:103A20000E46002815D0002C13D00D9806F01AFB76
:103A3000050011D06178207809024018A178E27859
:103A40000904120689184718286AB84206D3401C90
:103A500004D0022011B0F0BD1420FBE7002E04D0EA
:103A60002879800701D40120F4E70822002106A864
:103A7000FCF702FB1098001DC0B20190FCF738FB68
:103A8000060017D0301D109A0F99FCF707FB04228F
:103A900021463046FCF702FB1022A91802A8FCF7C9
:103AA000FDFA06AB314602A8019A08F00DFE0500AA
:103AB00002D013E01320CDE7082206A908A8FCF7DE
:103AC000EDFA0822211D08A8FCF7BEFA012801D052
:103AD000012503E039460D9803F022F93046FCF742
:103AE0000DFB2846B6E7000030B585B02C4C694682
:103AF0002073207808706A4601212A48FDF7B6FF36
:103B0000E1890220FEF740FEE1890320FEF73CFE3A
:103B100006211520FEF738FE0A211620FEF734FE96
:103B2000214A15210020FFF75FFC00206946009024
:103B3000087108720873087481206A460421C00065
:103B4000FDF73CFE012101AA8802FDF737FE15486A
:103B500002AA0121801EFDF731FE124803AA0121AD
:103B6000401EFDF72BFE0F4804AA0121801CFDF723
:103B700025FEFFF7BDFA207BFFF73EFB0025ED4356
:103B80002846FFF721FC2846FEF7BEFE0748FCF753
:103B90003FFB0121207BFCF79FFA05B030BD000000
:103BA0007C79FF1F04040000C0DC0211D2B9FF1FA2
:103BB000F8B52C4D0C4608040FD5287BFCF750FABD
:103BC000050007D00178B02901D107F011FC284683
:103BD000FCF74CFA0120C0033FE0E0070126002873
:103BE00009D02148FDF772FF1F480830FDF744FD5A
:103BF00020467040F8BDA00710D50020687368709B
:103C00002A789620424300211848FCF735FA002212
:103C100001210320FDF770FF02201EE0600703D59D
:103C200000F024FB042018E0200711D510A000F0BC
:103C300081FA1A4A00211A48FCF71EFA19A00068F6
:103C40000090EE70297B288AFFF730F9082004E005
:103C5000200604D500F0A4FA80206040F8BD0020C2
:103C6000F8BD00007C79FF1FB0DC0211B2CDFF1F50
:103C70003D3D3E73696D706C65424C4543656E74A5
:103C800072616C5374617274446973636F766572A8
:103C900079536572766963650A000000241200009A
:103CA0008EBBFF1FF0FF000030B55D4C8BB0A070E5
:103CB00006211F20FEF768FD01216846017201738D
:103CC000072101740021818256480188684681835A
:103CD00055480188684601845448018868468184B3
:103CE000534801886846018552A003C8019100909D
:103CF00021786846017606AA01215048FEF750F85F
:103D00004E486A460621801CFEF74AF8C32004AAE2
:103D100001218000FEF744F8484802AA0121001F53
:103D2000FEF73EF8454805AA0221C01EFEF738F806
:103D3000434801786120C000002901D0414A04E0D5
:103D40004149414A0978491CC9B2FEF729F83F4860
:103D500001783A48801E002901D03D4A02E03E49E0
:103D60003C4A0978FEF71CF8312003AA0121000122
:103D7000FEF716F8314807AA02210830FEF710F8BE
:103D80002E4808AA02210930FEF70AF82B4809AA92
:103D900002210A30FEF704F8C5200AAA0221800099
:103DA000FDF7FEFF1E4A15212E320020FFF71CFBF7
:103DB0002A48008885B229460620FEF7E5FC2946F8
:103DC0000720FEF7E1FC29460820FEF7DDFC294626
:103DD0000920FEF7D9FC0020C04300F073F820480A
:103DE0000078002801D006F093FD0D48001D00F07A
:103DF00087F8F7250120FCF711FA0120FCF714FAE7
:103E00002846FDF769F90121A078FCF765F9A0784B
:103E1000FEF768FC1348FCF7FBF90BB030BD00005F
:103E20009879FF1F8675FF1F8875FF1F8A75FF1F12
:103E30008C75FF1F01020304050600000903000042
:103E40008475FF1FB784FF1F6D75FF1F6C75FF1F03
:103E50009884FF1F4C75FF1F6B75FF1F4875FF1F70
:103E6000A975FF1F46DFFF1F38B50C4608040AD5A9
:103E700012488078FCF7F4F8002801D0FCF7F6F837
:103E80000120C00316E0E0070125002808D00B48F8
:103E90001030FEF78FF8FCF7CDF92046684038BDAA
:103EA000200709D5684605706A4601210448FDF7D8
:103EB00077FF0820604038BD002038BD9879FF1F8B
:103EC0000503000070B50546002409490948FEF7BE
:103ED00063FD094806F03CF9E80706D00448074AA4
:103EE00006212830FEF71CFF0446204670BD000066
:103EF000DC78FF1FFFFF00009DB80211A4DC021157
:103F0000002803D002494860002070471120704704
:103F1000CC78FF1F10B57D21C003C900FCF79AF8CB
:103F2000FCF77AF810BD000010B5054908700020B4
:103F300009F096FD034A04492520FCF781F910BDDC
:103F4000E079FF1F2996021115960211C80704D0C7
:103F5000024A7620D060012048407047002000408F
:103F6000002805DBC106C90E012088400149086010
:103F70007047000000E100E08307FF22DB0E9A405B
:103F80008907090E9940002808DB830809489B002F
:103F90001B18186890430843186070470007000F0B
:103FA0000838830804489B001B18D86990430843CD
:103FB000D861704700E400E000ED00E08307FF22D5
:103FC000DB0E9A408907090E9940002808DB830818
:103FD00009489B001B1818689043084318607047F5
:103FE0000007000F0838830804489B001B18D86995
:103FF00090430843D861704700E400E000ED00E022
:020000041102E7
:1040000030B50F4A142900D914211170C9B20B46DA
:104010000C4A491C1170002104E0445C5518491CED
:10402000AC70C9B29942F8D30020142904D25318B5
:10403000491C9870C9B2F8E703490120087030BDE7
:104040008375FF1F6D75FF1FA875FF1F0A4610B50A
:104050000146002005F0AAFA10BD10B5FCF7F6F8ED
:10406000002010BD10B5FCF7F7F80120FCF7FAF8B6
:1040700010BD0000FFB583B00F4603981B494000F8
:104080001646085AFFF70CFB04002AD00125601CD5
:104090002670002F03D00699B847401C85B2300621
:1040A00010D51021039806F081F8002801D01926B8
:1040B00013E06219E9B22046FFF720FB06000CD19D
:1040C0000C35ADB204216846018001940581694632
:1040D0000398FFF7CBFA060004D02046FCF77AF8E5
:1040E00000E01326304607B0F0BD0000EE79FF1F58
:1040F00010B5074A9278D20707D0054A683252892C
:104100000A800022FFF746F810BD122010BD000003
:10411000DC78FF1F01680A0508D11031044A0160EC
:1041200052781203914201D3891A0160704700004E
:10413000AC76FF1F704710B50C4605F0A7FF0028AE
:1041400004D040882146FCF70FF810BD122010BDA6
:1041500030B5114B1C78002C1CD0104B632C03D0B5
:104160008C4217D1002111E0002005210D1A145CAA
:104170005D5DAC420ED1401CC0B20628F6D307E00C
:10418000425C5D5CAA4205D1491CC9B2A142F7D389
:10419000012030BD002030BD3E75FF1F8484FF1F0D
:1041A00010B50B4C8021207BFBF790FF09490020C4
:1041B000087009480068002800D080470748007848
:1041C000002804D064220221207BFBF779FF10BD78
:1041D0007C79FF1F3F75FF1F9C75FF1F3E75FF1FFA
:1041E00010B507488021007BFBF770FF05490120CF
:1041F000087005480068002800D0804710BD000006
:104200007C79FF1F3F75FF1F9875FF1F10B502488F
:10421000008AFDF77FFC10BD7C79FF1F10B50B4CA9
:104220002078002804D00A480068002800D0804781
:104230000020207007480078002805D00648642236
:104240000221007BFBF73CFF10BD00003F75FF1F04
:10425000A075FF1F3E75FF1F7C79FF1F024A126881
:10426000002A00D010477047A475FF1FF8B500243E
:10427000134F14E096202146414312480E1835464C
:104280001F352846FBF7F4FF002806D128460422F4
:104290000DA1FBF7CDFE0420B077641CE4B2787862
:1042A0008442E7D30A480168002901D0787888471A
:1042B00008480078002801D007F058F9F8BD000040
:1042C0007C79FF1FB2CDFF1F6E756C6C0000000083
:1042D0009475FF1F3E75FF1FF8B51E4D0746A87861
:1042E000022835D11C480078002831D00E46F42928
:1042F00000D9F4266879A872A879E872FA20FBF749
:10430000F7FE04460021E030017601214176A87ACB
:10431000FF21D1314843114916224118E87A504310
:104320000818818B3246491C218066803946201D41
:10433000FBF77EFE2146288AFFF72EF8010004D005
:1043400007A0FFF7F7FEFFF761FF2046FBF7D6FE59
:10435000F8BD00007C79FF1F3F75FF1F8EBBFF1F5C
:104360004E6F74696679204552524F522025640D74
:104370000A000000F8B507460A480C4600880A49BA
:1043800040000D5A0026ED1EAC4204D8E1B2B81927
:10439000FFF7A2FFF8BDE9B2B819FFF79DFF641B54
:1043A0007619F1E79075FF1FEE79FF1F70B51A4877
:1043B0001A4900880870020A4A701949194B09887D
:1043C0001970090A59701849184B09881970090A97
:1043D000174C59706071174DA2716878002801D090
:1043E00000F0F0F8144928780870144800780A287A
:1043F00001D30838E07100F009F91148114900783B
:104400001422401C08701048891CFBF711FE0E494D
:104410000020087570BD00004075FF1F6479FF1F04
:104420004275FF1F7679FF1F4475FF1F7879FF1FC4
:104430004C75FF1F3C75FF1F480AFF1F6B75FF1F60
:104440008375FF1F6D75FF1FC679FF1F10B50849E3
:104450000848FDF769FB064CA41E2078002804D10B
:1044600005480068002800D080470120207010BD5A
:104470009075FF1F0E030000AC75FF1F70B5064C52
:10448000002565702078002804D0044800680028C2
:1044900000D08047257070BD8E75FF1FB075FF1F5F
:1044A00004490020487004480068002800D00047F4
:1044B000704700008E75FF1FB875FF1F044901206B
:1044C000487004480068002800D00047704700008A
:1044D0008E75FF1FB475FF1F3EB50B4A0B4C12784B
:1044E000EC2A0BD00AA007C86B4607C36846FBF747
:1044F000BFFEC1B22268684690473EBD2268002ACE
:10450000FBD090473EBD0000C075FF1FBC75FF1F6C
:104510006563696F742E636E0000000010B50C4A6D
:104520005378002B0ED052880A4B52009B5ADB1E48
:104530009BB2994200D9D9B2074A1278002A02D018
:1045400000F00CF810BD0246002007F0BFF910BDC6
:104550008E75FF1FEE79FF1F3D75FF1F30B5BFB091
:104560000C460546F8216846FBF788FE2246294698
:1045700001A8FBF75DFD6846448003486946408812
:10458000FFF7B6FD3FB030BD8E75FF1FF8B507468B
:104590000A480C4640880A4940000D5A0026ED1E84
:1045A000AC4204D8E1B2B819FFF7B8FFF8BDE9B2E0
:1045B000B819FFF7B3FF641B7619F1E78E75FF1F7B
:1045C000EE79FF1F08480749C160024610212032DA
:1045D0001170421A42625032117001462039416412
:1045E000704700009CDC02110479FF1F10B50446DF
:1045F000014602220448FBF747FE0422A11C1003D7
:10460000FBF742FE10BD00000440000000B5194851
:104610008DB00078EC280CD017A207CA6B4607C3F0
:104620006846FBF725FEC1B26846FFF7E9FC0DB00E
:1046300000BD144800780028F9D10490059004A822
:10464000FFF7D4FF1C2106A8FBF718FE6846437D40
:10465000027DC17C807C03936B4607C36846437C24
:10466000027C09A106A8FBF715FE0F2106A800F0A1
:104670002DF8DCE7C075FF1F6563696F742E636EEC
:1046800000000000A875FF1F42545F2530325825F6
:10469000303258253032582530325825303258259E
:1046A00030325800084A002807D0012807D00228D5
:1046B00007D0032800D111617047516070479160A5
:1046C0007047D16070470000A875FF1F10B5034AFE
:1046D0001278EC2A01D1FFF793FC10BDC075FF1FC3
:1046E0000149487070470000A875FF1F01494861E3
:1046F00070470000A875FF1F0EB5104A1378104AC6
:10470000EC2B127811D00FA30BCB009002930191E8
:10471000012A684604D0FBF7ABFD0146684606E077
:10472000FBF7A6FD0146684604E0012A02D0FFF728
:104730002DFF0EBDFFF71EFE0EBD0000C075FF1F52
:104740003B75FF1F6563696F742E636E0000000088
:10475000112110B50903884203D309034018FBF760
:104760009FFD10BD38B500246846047001226946DB
:104770000648FBF789FD684601780548FE2901D007
:10478000047038BDEC21017038BD0000F508000050
:10479000C075FF1F112310B51B03984208D20020DB
:1047A000FF2302E00B54401C80B29042FAD310BDAC
:1047B00011231B06C018FBF767FD10BD112310B5B0
:1047C0001B03984203D31B03C018FBF76FFD10BDFA
:1047D00000B50300FBF75CFC0B07090B0D0F111371
:1047E0001517191B1D00162000BD022000BD032057
:1047F00000BD042000BD052000BD062000BD07202F
:1048000000BD082000BD092000BD0C2000BD0D200A
:1048100000BD002000BD70B50C460546FFF7D8FF6F
:10482000214604F0C3FB2846FFF7D2FF002104F025
:104830008DFB2846FFF7CCFF214604F0B7FB70BD87
:1048400010B52C4C0300FBF723FC0B070D141B22A7
:104850002930373E454C540006C4FFF7B9FF264ABD
:10486000114644E0E260A160FFF7B2FF234A11461F
:104870003DE062612161FFF7ABFF214A114636E05E
:10488000E261A161FFF7A4FF1E4A11462FE06262B8
:104890002162FFF79DFF1C4A114628E0E262A162F7
:1048A000FFF796FF194A114621E062632163FFF783
:1048B0008FFF174A11461AE0E263A163FFF788FFF2
:1048C000144A114613E062642164FFF781FF124A23
:1048D00011460CE0E264A164FFF77AFF0F4A11462B
:1048E00005E062652165FFF773FF0D4A114604F08C
:1048F00033FD10BDC475FF1F5949021189490211CA
:10490000A1490211B9490211D1490211E949021123
:10491000014A0211194A0211314A0211494A02118F
:104920007149021170B50C460546FFF751FF21464B
:1049300004F064FC2846FFF74BFF012104F006FB5E
:104940002846FFF745FF04F027FD2846FFF740FF04
:10495000214604F053FC70BD0448012903D040688F
:10496000002802D000470068FAE77047C475FF1FAF
:104970000448012903D0406D002802D00047006D93
:10498000FAE77047C475FF1F0448012903D0C068C7
:10499000002802D000478068FAE77047C475FF1FFF
:1049A0000448012903D04069002802D0004700696B
:1049B000FAE77047C475FF1F0448012903D0C06996
:1049C000002802D000478069FAE77047C475FF1FCE
:1049D0000448012903D0406A002802D00047006A39
:1049E000FAE77047C475FF1F0448012903D0C06A65
:1049F000002802D00047806AFAE77047C475FF1F9D
:104A00000448012903D0406B002802D00047006B06
:104A1000FAE77047C475FF1F0448012903D0C06B33
:104A2000002802D00047806BFAE77047C475FF1F6B
:104A30000448012903D0406C002802D00047006CD4
:104A4000FAE77047C475FF1F0448012903D0C06C02
:104A5000002802D00047806CFAE77047C475FF1F3A
:104A600010B5FFF7B5FE04F0C3FA002800D001200E
:104A700010BD10B5FFF7ACFE04F0C0FB10BD000088
:104A800010B50E4901200870FBF716FCFBF734FD4A
:104A90000B48007801280ED0FBF714FC04F0C6FC8C
:104AA00004F08CFCFFF75EFEFFF780FCFFF7DAFAFC
:104AB00000F016F810BDFBF70BFCEFE79275FF1F37
:104AC0003B75FF1F10B5FFF7C8FA10BD10B5612088
:104AD000FBF704FC002802D16120FBF705FC10BDA8
:104AE00010B5002211466120FBF7AAFB10BD0000A3
:104AF0000749002807D0012806D0022806D003283D
:104B000003D1042000E00220087070470320FBE777
:104B10004A0AFF1F70B504460078012801D0022818
:104B20001CD10F4D227AA8886B881118994208D29F
:104B3000EB6861681818FBF735FB207AA9884018E4
:104B4000A880084C01212078FBF7C0FA286900F002
:104B500067F8024601212078FBF7B2FA70BD000029
:104B60007876FF1F3A75FF1F0FB410B503AA0448EB
:104B7000029905F06BFB10BC08BC04B0184700009C
:104B80004D40021110B5074C6269002A02D0A1887D
:104B9000E06890470020A0806188E068FBF7AAFBEE
:104BA00010BD00007876FF1F70B50446007801281C
:104BB00001D002281CD10F4D227A2889EB881118C8
:104BC000994208D2AB6961681818FBF7EBFA207AB2
:104BD000298940182881084C02212078FBF776FAB1
:104BE000E86900F01DF8024602212078FBF768FA18
:104BF00070BD00007876FF1F3A75FF1F10B5074C97
:104C0000226A002A02D02189A069904700202081D1
:104C1000E188A069FBF76EFB10BD00007876FF1FEE
:104C2000E1214902884201D10A207047E12189012E
:104C3000884201D30F2070474B21C901884201D31C
:104C4000142070474B218901884201D328207047E6
:104C50004B214901884201D3462070474B2109016D
:104C6000884201D3962070474B22D20051109042C7
:104C700001D308467047884202D3FF20F5307047C1
:104C8000004870474C040000F0B585B00D469C46C6
:104C9000144601002B482C4B0D9F0E9E0F9A28D0D6
:104CA000012924D18761C680C56144700262DA6936
:104CB000996918690190049203916046FFF788FD95
:104CC000694608710A98FFF783FD694648710295A5
:104CD000012C34D00020C873012001AC00900FCC0F
:104CE00004F032FC01200C9A0B9904F06FFC05B023
:104CF000F0BDC7604680056104704261DA6899685A
:104D000018680190049203916046FFF761FD6946BF
:104D100008710A98FFF75CFD694648710295012CFD
:104D20000BD00020C873002001AC00900FCC04F021
:104D30000BFC00200C9A0B99D7E70120F2E7012029
:104D4000C9E700007876FF1F30DB021110B500289C
:104D500001D0012801D104F029FC10BDF0B5504E5E
:104D6000504C9BB07168216071782171FF21A17155
:104D70001021002561712F460922FF21E01DFBF75C
:104D80007BF94E22002106A8FBF776F931E0206876
:104D900029034018102202A900F040F90298216866
:104DA000884218D16946097B2279914213D169461C
:104DB000497B627991420ED168467178807B491EA9
:104DC000884224DAA84201D1022700E0032706A97D
:104DD0004855A0710BE0401C19D16846007BFF28A4
:104DE00015D16846407BFF2811D106A948556D1C96
:104DF000EDB22179A942CAD8042F08D0A0790125A3
:104E0000FF2807D0012F05D0002006AA24E020208B
:104E10001BB0F0BD00270DE0A771206839034018D2
:104E20001022204900F010F9002801D01F20EFE7E0
:104E30007F1CFFB22079401EB842EDDC00202074B8
:104E40002079401E607410206082357025E0135C6C
:104E5000002B03D0401CC0B28142F8D881421CD93B
:104E6000401E0818FBF74CFA6174002035700246AA
:104E70006946009000F018F8002802D0212802D0DE
:104E800004E0009901E0012109036182C0B22128F8
:104E900003D0002801D02A20BAE70020B8E700009C
:104EA000AC76FF1F88B1FF1FF7B501248AB0002040
:104EB0000E46274605909CE056480179407CC01973
:104EC000FBF7C8F8C8B2FF2C03D3FF3CA4B2FF2CF9
:104ED00033D20A9A002A01D14E4A1174000302907B
:104EE00005980125002803D000200590601C06E0ED
:104EF000012C05D92819811EFF2917DA401E85B219
:104F0000029829010818079042480422016807986E
:104F1000081804A900F082F80A9800280ED0012889
:104F200029D002283CD006200DB0F0BDFF20023071
:104F3000401B201A84B20120059058E00498810398
:104F4000890F04D0022902D003294CD10EE00103BD
:104F5000890F012901D0012445E0000D0C21FBF748
:104F600079F8002900D0012144183CE00798000599
:104F7000000D306047E0049881038A0F04D0022AB4
:104F800005D0032A2FD142E0890F0229DFD13288D0
:104F900081B292B29142DAD10C990798086032E05E
:104FA00004988103890F04D00229D0D003291AD193
:104FB00029E00103890F012903D0306801240C3056
:104FC0000BE0000D0C21FBF745F8002900D0012172
:104FD00044180C2031686043081830600C980C9914
:104FE0000068401C08606D1CADB2FF2D80D97F1C8D
:104FF000FFB209484078874200D25DE70A9800284E
:1050000003D0012803D000208EE721208CE7252043
:105010008AE7000088B1FF1FAC76FF1F10B5094C6E
:10502000636898420BD364782403E318834206D95B
:10503000002904D0002A02D0FBF726F910BD222057
:1050400010BD0000AC76FF1F70B515460E46044635
:10505000FBF75CF9800601D0292070BD094948683A
:10506000844206D3497809030818A04201D9A00751
:1050700001D0222070BD2A4631462046FBF716F9A2
:1050800070BD0000AC76FF1F0022002913D000285D
:1050900011D0012806D04A799206920E4A7103284F
:1050A00005D007E04879C0221043487102E0402053
:1050B00002434A71012210467047000070B5124841
:1050C00000250078052108421BD02020FBF710F8AE
:1050D0000E4C0028A06013D020220021FAF7CCFF4C
:1050E0002020FBF705F8E060002804D020220021F2
:1050F000FAF7C2FF05E0A068FBF700F80020A06007
:105100001325284670BD00000D7AFF1F807AFF1F0F
:1051100070B5104C606800281AD12078002815D08E
:1051200005012846FAF7E4FF6060002810D02A46FF
:105130000021FAF7A1FF00202278FF23616803E035
:105140000401401C0B55C0B29042F9D3002070BD41
:10515000132070BDF479FF1FF3B588880D468100D8
:105160005A485A4C40585A4F203C85B0002823D109
:10517000059800287ED0002D7CD000F00DFA6074D8
:105180000A281CD300260E207043C0190622FF21D6
:10519000FAF778FF002804D1761CF6B20A2EF2D373
:1051A0000A2666740A2E07D1607B0A210646FAF7A2
:1051B00051FF6174761C6673607C0A2861D2A888EE
:1051C000424E8000305800285ED082680027002AB6
:1051D0000BD0607C062148432130C0B21C2105F071
:1051E0000BFBA888800030588760A8888000305862
:1051F0000269002A0BD0607C062148432230C0B2ED
:105200001C2105F0F9FAA888800030580761A888A9
:10521000800030584269002A0BD0607C0621484348
:105220002330C0B2102105F0E7FAA888800030587A
:105230004761A88880003058C268002A18D0607C76
:10524000062148432430C0B2102105F0D5FAA888C1
:10525000062180003058C268607C103248432530F7
:10526000C0B2042105F0C8FAA88880003058C76091
:10527000E07B00E005E0002801D000F0DFFA00F05C
:1052800021FB012007B0F0BD607C0621484320309F
:10529000C0B20E21059A05F0AFFA1022FF21684630
:1052A000FAF7EAFE607C6A467030C0B2102105F061
:1052B000A3FA607C0E2148430A46C0190599FAF703
:1052C000B7FEA888800035500020DBE7D476FF1FAA
:1052D000ACB1FF1FF0B589B017460E460446202238
:1052E00000216846FAF7C8FE68460480394C02255A
:1052F000E178017122794271217B0177069841089A
:10530000E07A4900C307DB0F1943069181070029A2
:10531000069901DA294300E0A943069101072E4BC3
:10532000069901D5194300E099430691C1062B4B1C
:10533000069901D5194300E0994306918106284B4F
:10534000069901D5194300E09943069140070421CD
:105350000028069801DA084300E088430690002AF6
:1053600005D001A810221F490230FAF761FE6179C9
:10537000002904D0002E02D00698284306906846E3
:10538000807D002900D00121084369468875A178F5
:10539000002900D00421084369468875A1790029B5
:1053A00000D00821084369468875E179002900D0BA
:1053B0001021084369468875217A002900D02021F0
:1053C00008436946887539466846FCF71FFE09B0F0
:1053D000F0BD0000B476FF1F0001000000020000D5
:1053E000000400009CB1FF1FF0B5064687B0062000
:1053F00041430C9D1446082B1BD02131CFB21C22F7
:1054000000216846FAF738FE6A461C21384605F046
:10541000E7F900280BD16846807EC01F092806D80E
:10542000E107C90F2B466A463046FCF751FE07B02C
:10543000F0BD2231E2E7000070B50025094E2C4690
:105440000E20604380190622FF21FAF71BFE002878
:1054500001D16D1CEDB2641CE4B20A2CF0D32846D5
:1054600070BD0000ACB1FF1F7FB50C46062148435C
:10547000064615462036F0B26A460E2105F0B0F910
:10548000002806D10622FF216846FAF7FBFD002816
:1054900002D0002004B070BD68468189002DC8B2DA
:1054A00002D02043C0B200E0A043814206D069464A
:1054B0008881F0B26A460E2105F09EF90120E9E7E5
:1054C00010B50024204600F007F8641CE4B20A2C52
:1054D00001D20028F6D010BD70B50546044606205E
:1054E0004443264690B02036F0B207AA0E2105F0BC
:1054F00077F9002806D10622FF2107A8FAF7C2FD96
:10550000002802D0002010B070BD0E22FF2107A895
:10551000FAF7B2FD1C22FF216846FAF7ADFD102212
:10552000FF210BA8FAF7A8FDF0B207AA0E2105F09B
:1055300063F9064620462130C0B26A461C2105F0B8
:105540005BF9064320462230C0B26A461C2105F0B2
:1055500053F9064320462330C0B26A46102105F0B5
:105560004BF9064320462430C0B26A46102105F0AC
:1055700043F906432534E0B26A46042105F03CF9BC
:10558000014631430C467035E8B20BAA102105F0F4
:1055900033F92043B7E7000070B50A4D06460024F2
:1055A0000E206043401906223146FAF74DFD0028CF
:1055B00001D0204670BD641CE4B20A2CF0D30A204E
:1055C00070BD0000ACB1FF1F00229300CB5A834294
:1055D00002D1900040187047521CD2B2042AF4D372
:1055E000002070477FB50C460A280CD2002C0AD048
:1055F000062148432030C0B26A460E2105F0F0F87B
:10560000050003D007E0022004B070BD0622694601
:105610002046FAF70DFD2846F6E71FB50621484358
:105620002030C0B26A460E2105F0DAF8002802D018
:10563000002004B010BD68468089C0B2F9E700219F
:105640008A00835A491CDB43835212189378C9B2EB
:10565000DB4393700429F3D37047000070B5144EF8
:1056600000240E2060438219204606214843203042
:105670001546C0B20E2105F0B3F800280BD028461D
:105680000622FF21FAF7F8FCA81D0622FF21FAF7EF
:10569000F3FC0020A881641CE4B20A2CE1D3054885
:1056A000C07B002801D000F0C9F800F00BF970BDF4
:1056B000ACB1FF1FB476FF1F10B5034940880978CD
:1056C000FDF778FB10BD0000B476FF1F10B50F4941
:1056D0004A79002A01D0012300E000238A78002AB9
:1056E00000D004221A438B79002B00D008231343E7
:1056F000CA79002A00D01022097A1A43002900D062
:1057000020211143FDF718F810BD0000B476FF1FEB
:1057100070B50E4604460621484388B01546203031
:10572000C0B204AA0E2105F05BF8002843D106227E
:10573000FF2104A8FAF7A6FC00283CD17034E0B29F
:105740006A46102105F04CF8002831D16846FFF771
:1057500076FF002E06D069463046FFF735FF002859
:105760000DD015E0102200216846FAF78BFC0028C6
:105770001ED1102200216846FAF77EFC10E0002DB1
:1057800019D069460020FFF71FFF002813D00680BC
:105790008178A9420CD08570002D01D100210180B3
:1057A0006846FFF74CFFE0B26A46102105F024F886
:1057B000012008B070BD0020FBE7000070B51C4C54
:1057C0000646606A1B4D86B0002809D12046143079
:1057D00000900223184A29460120FDF7D5FB20E05E
:1057E00004A80222002100900292019103ABA28A38
:1057F0003046616AFDF774F900280CD16846017BD8
:10580000407B000208180204120C04D0606A41892F
:105810003046FCF791F80023A28A2946606AFDF71A
:10582000E5FB60620028DBD1012006B070BD0000FE
:10583000B476FF1FFFFF000064DD021170B5FAF7B8
:105840006BFD0A4E00240E20604380190546062297
:10585000FF21FAF717FC002802D12946FAF762FD6A
:10586000641CE4B20A2CEED370BD0000ACB1FF1F83
:1058700070B50B46044611461846FFF76DFC00282C
:105880001DD00F4DA40028598088FFF797FF0028EE
:1058900015D02E46203EF069002807D04368002B23
:1058A00004D02859002280880121984728590028CF
:1058B00003D0FAF7DBFB002028510A20707470BD7A
:1058C000D476FF1F08B5FFF7B7FD012801D90220E4
:1058D00000E00A20694608706A4601210520FDF7AC
:1058E00083FD08BD10B50D4A03460B4C122012680B
:1058F000A14209D1002A04D01078984202D1FAF7C7
:1059000017FD10BD032010BD034B5B1C9942FAD15B
:10591000002AF4D110BD0000FEFF0000747AFF1FC2
:105920000246094B10B50120D21807D0012A01D038
:10593000002010BD8A681278002AFAD088680078A2
:1059400001F0C2F910BD0000F5DFFFFF70B504469D
:105950008078002806D005280DD0062816D00C28FF
:105960001FD11BE0607800281BD10622E11C1248E1
:10597000FAF75EFB15E060782146002811D14A89CC
:10598000C8780823211DFBF783FC0AE0A588204680
:10599000FBF73EFD2846FBF7FBFF02E02046FBF746
:1059A00037FD05480C384068002804D041680029BC
:1059B00001D02046884770BD3475FF1F10B50178AF
:1059C000912917D0D0292DD0E02912D14468174948
:1059D000608888420DD0012104F0E8FB002808D03F
:1059E0002288231D21461248FAF7A8FC6088FAF79E
:1059F00061FB10BD41780E29FBD181880D4A91428F
:105A0000F7D18268917850780902401803215156E5
:105A1000094A80B25268002AEBD01268002AE8D006
:105A2000904710BDFFF792FF10BD0000FFFF000080
:105A3000655A0211051400002875FF1F084A00214D
:105A400006234B439B185B88834203D106204143C6
:105A500088187047491CC9B20429F1D30020704747
:105A60002884FF1F10B50446FF2020710820FAF794
:105A700093FB010006D0E020087003484C6040789A
:105A8000FAF76CFB10BD00002875FF1F002909D034
:105A9000012807D1497989098901C02902D0402903
:105AA00001D00220704703207047FFB500200E464A
:105AB00008701AE01C5C401CC5B2002C17D02819D5
:105AC000904214D85F5D6D1CEDB2384601F051F97B
